{
  "contractName": "RushCon",
  "abi": [
    {
      "inputs": [],
      "stateMutability": "payable",
      "type": "constructor",
      "payable": true
    },
    {
      "anonymous": false,
      "inputs": [
        {
          "indexed": true,
          "internalType": "address",
          "name": "tokenOwner",
          "type": "address"
        },
        {
          "indexed": true,
          "internalType": "address",
          "name": "spender",
          "type": "address"
        },
        {
          "indexed": false,
          "internalType": "uint256",
          "name": "tokens",
          "type": "uint256"
        }
      ],
      "name": "Approval",
      "type": "event"
    },
    {
      "anonymous": false,
      "inputs": [
        {
          "indexed": true,
          "internalType": "address",
          "name": "from",
          "type": "address"
        },
        {
          "indexed": true,
          "internalType": "address",
          "name": "to",
          "type": "address"
        },
        {
          "indexed": false,
          "internalType": "uint256",
          "name": "tokens",
          "type": "uint256"
        }
      ],
      "name": "Transfer",
      "type": "event"
    },
    {
      "inputs": [
        {
          "internalType": "address",
          "name": "",
          "type": "address"
        }
      ],
      "name": "matchDetails",
      "outputs": [
        {
          "internalType": "uint256",
          "name": "status",
          "type": "uint256"
        },
        {
          "internalType": "uint256",
          "name": "matchNumber",
          "type": "uint256"
        },
        {
          "internalType": "uint256",
          "name": "matchDuration",
          "type": "uint256"
        }
      ],
      "stateMutability": "view",
      "type": "function",
      "constant": true
    },
    {
      "inputs": [
        {
          "internalType": "address",
          "name": "",
          "type": "address"
        }
      ],
      "name": "registered",
      "outputs": [
        {
          "internalType": "uint256",
          "name": "",
          "type": "uint256"
        }
      ],
      "stateMutability": "view",
      "type": "function",
      "constant": true
    },
    {
      "inputs": [
        {
          "internalType": "address",
          "name": "",
          "type": "address"
        }
      ],
      "name": "rewards",
      "outputs": [
        {
          "internalType": "uint256",
          "name": "",
          "type": "uint256"
        }
      ],
      "stateMutability": "view",
      "type": "function",
      "constant": true
    },
    {
      "inputs": [],
      "name": "viewCommission",
      "outputs": [
        {
          "internalType": "uint256",
          "name": "",
          "type": "uint256"
        }
      ],
      "stateMutability": "view",
      "type": "function",
      "constant": true
    },
    {
      "inputs": [],
      "name": "viewRewards",
      "outputs": [
        {
          "internalType": "uint256",
          "name": "",
          "type": "uint256"
        }
      ],
      "stateMutability": "view",
      "type": "function",
      "constant": true
    },
    {
      "inputs": [],
      "name": "getProviders",
      "outputs": [
        {
          "internalType": "address[]",
          "name": "",
          "type": "address[]"
        }
      ],
      "stateMutability": "view",
      "type": "function",
      "constant": true
    },
    {
      "inputs": [
        {
          "internalType": "address",
          "name": "user",
          "type": "address"
        }
      ],
      "name": "registerUser",
      "outputs": [],
      "stateMutability": "nonpayable",
      "type": "function"
    },
    {
      "inputs": [
        {
          "internalType": "address",
          "name": "provider",
          "type": "address"
        }
      ],
      "name": "registerProvider",
      "outputs": [],
      "stateMutability": "nonpayable",
      "type": "function"
    },
    {
      "inputs": [
        {
          "internalType": "address",
          "name": "member",
          "type": "address"
        }
      ],
      "name": "unregister",
      "outputs": [],
      "stateMutability": "nonpayable",
      "type": "function"
    },
    {
      "inputs": [
        {
          "internalType": "uint256",
          "name": "matchId",
          "type": "uint256"
        },
        {
          "internalType": "uint256",
          "name": "duration",
          "type": "uint256"
        }
      ],
      "name": "requestStream",
      "outputs": [],
      "stateMutability": "nonpayable",
      "type": "function"
    },
    {
      "inputs": [
        {
          "internalType": "address",
          "name": "user",
          "type": "address"
        },
        {
          "internalType": "uint256",
          "name": "status",
          "type": "uint256"
        }
      ],
      "name": "responseStream",
      "outputs": [],
      "stateMutability": "nonpayable",
      "type": "function"
    },
    {
      "inputs": [
        {
          "internalType": "address payable",
          "name": "channel",
          "type": "address"
        }
      ],
      "name": "confirmPayment",
      "outputs": [],
      "stateMutability": "payable",
      "type": "function",
      "payable": true
    },
    {
      "inputs": [
        {
          "internalType": "address",
          "name": "delegate",
          "type": "address"
        },
        {
          "internalType": "uint256",
          "name": "numTokens",
          "type": "uint256"
        }
      ],
      "name": "approve",
      "outputs": [
        {
          "internalType": "bool",
          "name": "",
          "type": "bool"
        }
      ],
      "stateMutability": "nonpayable",
      "type": "function"
    },
    {
      "inputs": [
        {
          "internalType": "address",
          "name": "owner",
          "type": "address"
        },
        {
          "internalType": "address",
          "name": "delegate",
          "type": "address"
        }
      ],
      "name": "allowance",
      "outputs": [
        {
          "internalType": "uint256",
          "name": "",
          "type": "uint256"
        }
      ],
      "stateMutability": "view",
      "type": "function",
      "constant": true
    },
    {
      "inputs": [
        {
          "internalType": "address",
          "name": "receiver",
          "type": "address"
        },
        {
          "internalType": "uint256",
          "name": "numTokens",
          "type": "uint256"
        }
      ],
      "name": "transfer",
      "outputs": [
        {
          "internalType": "bool",
          "name": "",
          "type": "bool"
        }
      ],
      "stateMutability": "payable",
      "type": "function",
      "payable": true
    },
    {
      "inputs": [
        {
          "internalType": "address",
          "name": "tokenOwner",
          "type": "address"
        }
      ],
      "name": "balanceOf",
      "outputs": [
        {
          "internalType": "uint256",
          "name": "",
          "type": "uint256"
        }
      ],
      "stateMutability": "view",
      "type": "function",
      "constant": true
    }
  ],
  "bytecode": "0x60806040526014600355336000806101000a81548173ffffffffffffffffffffffffffffffffffffffff021916908373ffffffffffffffffffffffffffffffffffffffff1602179055503073ffffffffffffffffffffffffffffffffffffffff166108fc349081150290604051600060405180830381858888f1935050505015801561008f573d6000803e3d6000fd5b5061170a8061009f6000396000f3fe6080604052600436106100f35760003560e01c806382e2d0851161008a578063c39119ec11610059578063c39119ec14610348578063dabffa8314610371578063dd62ed3e1461039a578063edc922a9146103d7576100f3565b806382e2d08514610271578063874c86d7146102b0578063a9059cbb146102db578063b2dd5c071461030b576100f3565b80632ec2c246116100c65780632ec2c246146101c45780633dfa83b3146101ed5780634b76ef1c1461021857806370a0823114610234576100f3565b80630700037d146100f8578063095ea7b3146101355780630e260016146101725780632199d5cd1461019b575b600080fd5b34801561010457600080fd5b5061011f600480360381019061011a919061118d565b610402565b60405161012c91906111d3565b60405180910390f35b34801561014157600080fd5b5061015c6004803603810190610157919061121a565b61041a565b6040516101699190611275565b60405180910390f35b34801561017e57600080fd5b506101996004803603810190610194919061118d565b61050c565b005b3480156101a757600080fd5b506101c260048036038101906101bd919061118d565b6105c1565b005b3480156101d057600080fd5b506101eb60048036038101906101e6919061118d565b610609565b005b3480156101f957600080fd5b5061020261081d565b60405161020f91906111d3565b60405180910390f35b610232600480360381019061022d91906112ce565b6108b0565b005b34801561024057600080fd5b5061025b6004803603810190610256919061118d565b610b2c565b60405161026891906111d3565b60405180910390f35b34801561027d57600080fd5b506102986004803603810190610293919061118d565b610b75565b6040516102a7939291906112fb565b60405180910390f35b3480156102bc57600080fd5b506102c5610b9f565b6040516102d291906111d3565b60405180910390f35b6102f560048036038101906102f0919061121a565b610ba7565b6040516103029190611275565b60405180910390f35b34801561031757600080fd5b50610332600480360381019061032d919061118d565b610d80565b60405161033f91906111d3565b60405180910390f35b34801561035457600080fd5b5061036f600480360381019061036a9190611332565b610d98565b005b34801561037d57600080fd5b506103986004803603810190610393919061121a565b610ebe565b005b3480156103a657600080fd5b506103c160048036038101906103bc9190611372565b610fa1565b6040516103ce91906111d3565b60405180910390f35b3480156103e357600080fd5b506103ec611028565b6040516103f99190611470565b60405180910390f35b60046020528060005260406000206000915090505481565b600081600860003373ffffffffffffffffffffffffffffffffffffffff1673ffffffffffffffffffffffffffffffffffffffff16815260200190815260200160002060008573ffffffffffffffffffffffffffffffffffffffff1673ffffffffffffffffffffffffffffffffffffffff168152602001908152602001600020819055508273ffffffffffffffffffffffffffffffffffffffff163373ffffffffffffffffffffffffffffffffffffffff167f8c5be1e5ebec7d5bd14f71427d1e84f3dd0314c0f7b2291e5b200ac8c7c3b925846040516104fa91906111d3565b60405180910390a36001905092915050565b6002600660008373ffffffffffffffffffffffffffffffffffffffff1673ffffffffffffffffffffffffffffffffffffffff16815260200190815260200160002081905550806001800160006001600001600081548092919061056e906114c1565b91905055815260200190815260200160002060006101000a81548173ffffffffffffffffffffffffffffffffffffffff021916908373ffffffffffffffffffffffffffffffffffffffff16021790555050565b6001600660008373ffffffffffffffffffffffffffffffffffffffff1673ffffffffffffffffffffffffffffffffffffffff1681526020019081526020016000208190555050565b60008054906101000a900473ffffffffffffffffffffffffffffffffffffffff1673ffffffffffffffffffffffffffffffffffffffff163373ffffffffffffffffffffffffffffffffffffffff161461066157600080fd5b6000600660008373ffffffffffffffffffffffffffffffffffffffff1673ffffffffffffffffffffffffffffffffffffffff16815260200190815260200160002054036106ad57600080fd5b6002600660008373ffffffffffffffffffffffffffffffffffffffff1673ffffffffffffffffffffffffffffffffffffffff16815260200190815260200160002054036107d55760005b6001600001548110156107b8578173ffffffffffffffffffffffffffffffffffffffff1660018001600083815260200190815260200160002060009054906101000a900473ffffffffffffffffffffffffffffffffffffffff1673ffffffffffffffffffffffffffffffffffffffff16036107a55760018001600082815260200190815260200160002060006101000a81549073ffffffffffffffffffffffffffffffffffffffff02191690555b80806107b0906114c1565b9150506106f7565b50600160000160008154809291906107cf90611509565b91905055505b6000600660008373ffffffffffffffffffffffffffffffffffffffff1673ffffffffffffffffffffffffffffffffffffffff1681526020019081526020016000208190555050565b60006001600660003373ffffffffffffffffffffffffffffffffffffffff1673ffffffffffffffffffffffffffffffffffffffff168152602001908152602001600020541461086b57600080fd5b600460003373ffffffffffffffffffffffffffffffffffffffff1673ffffffffffffffffffffffffffffffffffffffff16815260200190815260200160002054905090565b6001600660003373ffffffffffffffffffffffffffffffffffffffff1673ffffffffffffffffffffffffffffffffffffffff16815260200190815260200160002054146108fc57600080fd5b60006002600660008473ffffffffffffffffffffffffffffffffffffffff1673ffffffffffffffffffffffffffffffffffffffff168152602001908152602001600020541461094a57600080fd5b6064600460003373ffffffffffffffffffffffffffffffffffffffff1673ffffffffffffffffffffffffffffffffffffffff1681526020019081526020016000205410610a2957600090506064600460003373ffffffffffffffffffffffffffffffffffffffff1673ffffffffffffffffffffffffffffffffffffffff168152602001908152602001600020546109e19190611532565b600460003373ffffffffffffffffffffffffffffffffffffffff1673ffffffffffffffffffffffffffffffffffffffff16815260200190815260200160002081905550610ae1565b6064346003546064610a3b9190611532565b610a459190611566565b610a4f91906115ef565b9050600a600460003373ffffffffffffffffffffffffffffffffffffffff1673ffffffffffffffffffffffffffffffffffffffff16815260200190815260200160002054610a9d9190611620565b600460003373ffffffffffffffffffffffffffffffffffffffff1673ffffffffffffffffffffffffffffffffffffffff168152602001908152602001600020819055505b8173ffffffffffffffffffffffffffffffffffffffff166108fc829081150290604051600060405180830381858888f19350505050158015610b27573d6000803e3d6000fd5b505050565b6000600760008373ffffffffffffffffffffffffffffffffffffffff1673ffffffffffffffffffffffffffffffffffffffff168152602001908152602001600020549050919050565b60056020528060005260406000206000915090508060000154908060010154908060020154905083565b600047905090565b6000600760003373ffffffffffffffffffffffffffffffffffffffff1673ffffffffffffffffffffffffffffffffffffffff16815260200190815260200160002054821115610bf557600080fd5b81600760003373ffffffffffffffffffffffffffffffffffffffff1673ffffffffffffffffffffffffffffffffffffffff16815260200190815260200160002054610c409190611532565b600760003373ffffffffffffffffffffffffffffffffffffffff1673ffffffffffffffffffffffffffffffffffffffff1681526020019081526020016000208190555081600760008573ffffffffffffffffffffffffffffffffffffffff1673ffffffffffffffffffffffffffffffffffffffff16815260200190815260200160002054610cce9190611620565b600760008573ffffffffffffffffffffffffffffffffffffffff1673ffffffffffffffffffffffffffffffffffffffff168152602001908152602001600020819055508273ffffffffffffffffffffffffffffffffffffffff163373ffffffffffffffffffffffffffffffffffffffff167fddf252ad1be2c89b69c2b068fc378daa952ba7f163c4a11628f55a4df523b3ef84604051610d6e91906111d3565b60405180910390a36001905092915050565b60066020528060005260406000206000915090505481565b6001600660003373ffffffffffffffffffffffffffffffffffffffff1673ffffffffffffffffffffffffffffffffffffffff1681526020019081526020016000205414610de457600080fd5b6000600560003373ffffffffffffffffffffffffffffffffffffffff1673ffffffffffffffffffffffffffffffffffffffff1681526020019081526020016000206000018190555081600560003373ffffffffffffffffffffffffffffffffffffffff1673ffffffffffffffffffffffffffffffffffffffff1681526020019081526020016000206001018190555080600560003373ffffffffffffffffffffffffffffffffffffffff1673ffffffffffffffffffffffffffffffffffffffff168152602001908152602001600020600201819055505050565b6002600660003373ffffffffffffffffffffffffffffffffffffffff1673ffffffffffffffffffffffffffffffffffffffff1681526020019081526020016000205414610f0a57600080fd5b6001600660008473ffffffffffffffffffffffffffffffffffffffff1673ffffffffffffffffffffffffffffffffffffffff1681526020019081526020016000205414610f5657600080fd5b80600560008473ffffffffffffffffffffffffffffffffffffffff1673ffffffffffffffffffffffffffffffffffffffff168152602001908152602001600020600001819055505050565b6000600860008473ffffffffffffffffffffffffffffffffffffffff1673ffffffffffffffffffffffffffffffffffffffff16815260200190815260200160002060008373ffffffffffffffffffffffffffffffffffffffff1673ffffffffffffffffffffffffffffffffffffffff16815260200190815260200160002054905092915050565b6060600060016000015467ffffffffffffffff81111561104b5761104a611676565b5b6040519080825280602002602001820160405280156110795781602001602082028036833780820191505090505b50905060005b6001600001548110156111225760018001600082815260200190815260200160002060009054906101000a900473ffffffffffffffffffffffffffffffffffffffff168282815181106110d5576110d46116a5565b5b602002602001019073ffffffffffffffffffffffffffffffffffffffff16908173ffffffffffffffffffffffffffffffffffffffff1681525050808061111a906114c1565b91505061107f565b508091505090565b600080fd5b600073ffffffffffffffffffffffffffffffffffffffff82169050919050565b600061115a8261112f565b9050919050565b61116a8161114f565b811461117557600080fd5b50565b60008135905061118781611161565b92915050565b6000602082840312156111a3576111a261112a565b5b60006111b184828501611178565b91505092915050565b6000819050919050565b6111cd816111ba565b82525050565b60006020820190506111e860008301846111c4565b92915050565b6111f7816111ba565b811461120257600080fd5b50565b600081359050611214816111ee565b92915050565b600080604083850312156112315761123061112a565b5b600061123f85828601611178565b925050602061125085828601611205565b9150509250929050565b60008115159050919050565b61126f8161125a565b82525050565b600060208201905061128a6000830184611266565b92915050565b600061129b8261112f565b9050919050565b6112ab81611290565b81146112b657600080fd5b50565b6000813590506112c8816112a2565b92915050565b6000602082840312156112e4576112e361112a565b5b60006112f2848285016112b9565b91505092915050565b600060608201905061131060008301866111c4565b61131d60208301856111c4565b61132a60408301846111c4565b949350505050565b600080604083850312156113495761134861112a565b5b600061135785828601611205565b925050602061136885828601611205565b9150509250929050565b600080604083850312156113895761138861112a565b5b600061139785828601611178565b92505060206113a885828601611178565b9150509250929050565b600081519050919050565b600082825260208201905092915050565b6000819050602082019050919050565b6113e78161114f565b82525050565b60006113f983836113de565b60208301905092915050565b6000602082019050919050565b600061141d826113b2565b61142781856113bd565b9350611432836113ce565b8060005b8381101561146357815161144a88826113ed565b975061145583611405565b925050600181019050611436565b5085935050505092915050565b6000602082019050818103600083015261148a8184611412565b905092915050565b7f4e487b7100000000000000000000000000000000000000000000000000000000600052601160045260246000fd5b60006114cc826111ba565b91507fffffffffffffffffffffffffffffffffffffffffffffffffffffffffffffffff82036114fe576114fd611492565b5b600182019050919050565b6000611514826111ba565b91506000820361152757611526611492565b5b600182039050919050565b600061153d826111ba565b9150611548836111ba565b92508282101561155b5761155a611492565b5b828203905092915050565b6000611571826111ba565b915061157c836111ba565b9250817fffffffffffffffffffffffffffffffffffffffffffffffffffffffffffffffff04831182151516156115b5576115b4611492565b5b828202905092915050565b7f4e487b7100000000000000000000000000000000000000000000000000000000600052601260045260246000fd5b60006115fa826111ba565b9150611605836111ba565b925082611615576116146115c0565b5b828204905092915050565b600061162b826111ba565b9150611636836111ba565b9250827fffffffffffffffffffffffffffffffffffffffffffffffffffffffffffffffff0382111561166b5761166a611492565b5b828201905092915050565b7f4e487b7100000000000000000000000000000000000000000000000000000000600052604160045260246000fd5b7f4e487b7100000000000000000000000000000000000000000000000000000000600052603260045260246000fdfea2646970667358221220aee6794dc3ea93812c1c146af23013200c8c5c745369fd91babf1af53560d06364736f6c634300080d0033",
  "immutableReferences": {},
  "source": "// SPDX-License-Identifier: GPL-3.0\r\n\r\npragma solidity ^0.8.13;\r\n\r\ncontract RushCon{\r\n    address chairperson;\r\n\r\n    struct matchInfo{\r\n        uint status;\r\n        uint matchNumber;\r\n        uint matchDuration;\r\n    }\r\n\r\n    struct providers{\r\n        uint numProviders;\r\n        mapping (uint =>address) providerList;\r\n    }\r\n\r\n    providers allProviders;\r\n\r\n    uint commission = 20;\r\n    mapping (address=>uint) public rewards;\r\n    mapping (address=>matchInfo) public matchDetails;\r\n    mapping (address=>uint) public registered;\r\n\r\n    event Approval(address indexed tokenOwner, address indexed spender, uint tokens);\r\n    event Transfer(address indexed from, address indexed to, uint tokens);\r\n\r\n\r\n    mapping(address => uint256) balances;\r\n\r\n    mapping(address => mapping (address => uint256)) allowed;\r\n\r\n    modifier onlyChairperson{\r\n        require(msg.sender == chairperson);\r\n        _;\r\n    }\r\n\r\n    modifier onlyUser{\r\n        require(registered[msg.sender] == 1);\r\n        _;\r\n    }\r\n\r\n    modifier onlyProvider{\r\n        require(registered[msg.sender] == 2);\r\n        _;\r\n    }\r\n\r\n    constructor() payable{\r\n        chairperson = msg.sender;\r\n        payable(address(this)).transfer(msg.value);  // can send some value to the contract initially\r\n    }\r\n\r\n    function viewCommission() public view returns(uint) {\r\n        return address(this).balance;\r\n    }\r\n\r\n    function viewRewards() public view onlyUser returns(uint) {\r\n        return rewards[msg.sender];\r\n    }\r\n\r\n    function getProviders() public view returns(address[] memory){\r\n        address[] memory addressArray = new address[](allProviders.numProviders);\r\n        for(uint i = 0; i < allProviders.numProviders; i++) {\r\n            addressArray[i] = allProviders.providerList[i];\r\n        }\r\n        return addressArray;\r\n    }\r\n\r\n    function registerUser(address user) public {\r\n        registered[user] = 1;\r\n    }\r\n\r\n    function registerProvider(address provider) public {\r\n        registered[provider] = 2;\r\n        allProviders.providerList[allProviders.numProviders++] = provider;\r\n    }\r\n\r\n    function unregister(address member) onlyChairperson public{\r\n        if(registered[member] == 0){\r\n            revert();\r\n        }\r\n        if(registered[member] == 2){\r\n            for(uint i = 0; i < allProviders.numProviders; i++) {\r\n                if(allProviders.providerList[i] == member){\r\n                    delete allProviders.providerList[i];\r\n                }\r\n            }\r\n            allProviders.numProviders--;\r\n        }\r\n        registered[member] = 0;\r\n    }\r\n\r\n    function requestStream(uint matchId, uint duration) onlyUser public{\r\n        matchDetails[msg.sender].status = 0;\r\n        matchDetails[msg.sender].matchNumber = matchId;\r\n        matchDetails[msg.sender].matchDuration = duration;\r\n    }\r\n\r\n    function responseStream(address user, uint status) onlyProvider public{\r\n        if(registered[user] != 1){\r\n            revert();\r\n        }\r\n        matchDetails[user].status = status;\r\n    }\r\n\r\n    function confirmPayment(address payable channel) onlyUser payable public{\r\n        uint amount;\r\n        if(registered[channel] != 2){\r\n            revert();\r\n        }\r\n        if(rewards[msg.sender] >= 100){\r\n            amount = 0;\r\n            rewards[msg.sender] = rewards[msg.sender] - 100;\r\n        }\r\n        else{\r\n            amount = (uint)(((100-commission)*msg.value)/100);\r\n            rewards[msg.sender] = rewards[msg.sender] + 10;\r\n        }\r\n        channel.transfer(amount);\r\n    }\r\n\r\n    function approve(address delegate, uint numTokens) public returns (bool) {\r\n        allowed[msg.sender][delegate] = numTokens;\r\n        emit Approval(msg.sender, delegate, numTokens);\r\n        return true;\r\n    }\r\n\r\n    function allowance(address owner, address delegate) public view returns (uint) {\r\n        return allowed[owner][delegate];\r\n    }\r\n\r\n    function transfer(address receiver, uint numTokens) payable public returns (bool) {\r\n        require(numTokens <= balances[msg.sender]);\r\n        balances[msg.sender] = balances[msg.sender] - numTokens;\r\n        balances[receiver] = balances[receiver] + numTokens;\r\n        emit Transfer(msg.sender, receiver, numTokens);\r\n        return true;\r\n    }\r\n\r\n    function balanceOf(address tokenOwner) public view returns (uint) {\r\n        return balances[tokenOwner];\r\n    }\r\n}\r\n",
  "sourcePath": "D:\\academics\\ub_cse\\526_BIA\\project\\Rush-Dapp\\rush-contract\\contracts\\RushCon.sol",
  "compiler": {
    "name": "solc",
    "version": "0.8.13+commit.abaa5c0e.Emscripten.clang"
  },
  "schemaVersion": "3.4.6",
  "updatedAt": "2022-05-08T17:15:13.492Z",
  "networkType": "ethereum",
  "devdoc": {
    "kind": "dev",
    "methods": {},
    "version": 1
  },
  "userdoc": {
    "kind": "user",
    "methods": {},
    "version": 1
  }
}