{
  "contractName": "RushCon",
  "abi": [
    {
      "inputs": [],
      "stateMutability": "payable",
      "type": "constructor",
      "payable": true
    },
    {
      "inputs": [
        {
          "internalType": "address",
          "name": "",
          "type": "address"
        }
      ],
      "name": "matchDetails",
      "outputs": [
        {
          "internalType": "uint256",
          "name": "status",
          "type": "uint256"
        },
        {
          "internalType": "uint256",
          "name": "hashOfDetails",
          "type": "uint256"
        }
      ],
      "stateMutability": "view",
      "type": "function",
      "constant": true
    },
    {
      "inputs": [
        {
          "internalType": "address",
          "name": "",
          "type": "address"
        }
      ],
      "name": "registered",
      "outputs": [
        {
          "internalType": "uint256",
          "name": "",
          "type": "uint256"
        }
      ],
      "stateMutability": "view",
      "type": "function",
      "constant": true
    },
    {
      "inputs": [
        {
          "internalType": "address",
          "name": "",
          "type": "address"
        }
      ],
      "name": "rewards",
      "outputs": [
        {
          "internalType": "uint256",
          "name": "",
          "type": "uint256"
        }
      ],
      "stateMutability": "view",
      "type": "function",
      "constant": true
    },
    {
      "inputs": [],
      "name": "viewBalance",
      "outputs": [
        {
          "internalType": "uint256",
          "name": "",
          "type": "uint256"
        }
      ],
      "stateMutability": "view",
      "type": "function",
      "constant": true
    },
    {
      "inputs": [],
      "name": "viewRewards",
      "outputs": [
        {
          "internalType": "uint256",
          "name": "",
          "type": "uint256"
        }
      ],
      "stateMutability": "view",
      "type": "function",
      "constant": true
    },
    {
      "inputs": [],
      "name": "getProviders",
      "outputs": [
        {
          "internalType": "address[]",
          "name": "",
          "type": "address[]"
        }
      ],
      "stateMutability": "view",
      "type": "function",
      "constant": true
    },
    {
      "inputs": [
        {
          "internalType": "address",
          "name": "user",
          "type": "address"
        }
      ],
      "name": "registerUser",
      "outputs": [],
      "stateMutability": "nonpayable",
      "type": "function"
    },
    {
      "inputs": [
        {
          "internalType": "address",
          "name": "provider",
          "type": "address"
        }
      ],
      "name": "registerProvider",
      "outputs": [],
      "stateMutability": "nonpayable",
      "type": "function"
    },
    {
      "inputs": [
        {
          "internalType": "address",
          "name": "member",
          "type": "address"
        }
      ],
      "name": "unregister",
      "outputs": [],
      "stateMutability": "nonpayable",
      "type": "function"
    },
    {
      "inputs": [
        {
          "internalType": "uint256",
          "name": "hashOfDetails",
          "type": "uint256"
        }
      ],
      "name": "requestStream",
      "outputs": [],
      "stateMutability": "nonpayable",
      "type": "function"
    },
    {
      "inputs": [
        {
          "internalType": "address",
          "name": "user",
          "type": "address"
        },
        {
          "internalType": "uint256",
          "name": "hashOfDetails",
          "type": "uint256"
        },
        {
          "internalType": "uint256",
          "name": "status",
          "type": "uint256"
        }
      ],
      "name": "responseStream",
      "outputs": [],
      "stateMutability": "nonpayable",
      "type": "function"
    },
    {
      "inputs": [
        {
          "internalType": "address payable",
          "name": "channel",
          "type": "address"
        }
      ],
      "name": "confirmPayment",
      "outputs": [],
      "stateMutability": "payable",
      "type": "function",
      "payable": true
    }
  ],
  "bytecode": "0x60806040526014600355336000806101000a81548173ffffffffffffffffffffffffffffffffffffffff021916908373ffffffffffffffffffffffffffffffffffffffff1602179055503073ffffffffffffffffffffffffffffffffffffffff166108fc349081150290604051600060405180830381858888f1935050505015801561008f573d6000803e3d6000fd5b506111bd8061009f6000396000f3fe6080604052600436106100a75760003560e01c80633dfa83b3116100645780633dfa83b3146101b65780633ff1e05b146101e15780634b76ef1c1461020c57806382e2d08514610228578063b2dd5c0714610266578063edc922a9146102a3576100a7565b80630700037d146100ac5780630e260016146100e95780632199d5cd1461011257806322a0be7f1461013b57806324b6b787146101645780632ec2c2461461018d575b600080fd5b3480156100b857600080fd5b506100d360048036038101906100ce9190610cc4565b6102ce565b6040516100e09190610d0a565b60405180910390f35b3480156100f557600080fd5b50610110600480360381019061010b9190610cc4565b6102e6565b005b34801561011e57600080fd5b5061013960048036038101906101349190610cc4565b61039b565b005b34801561014757600080fd5b50610162600480360381019061015d9190610d51565b6103e3565b005b34801561017057600080fd5b5061018b60048036038101906101869190610d7e565b6104c1565b005b34801561019957600080fd5b506101b460048036038101906101af9190610cc4565b6105ec565b005b3480156101c257600080fd5b506101cb610858565b6040516101d89190610d0a565b60405180910390f35b3480156101ed57600080fd5b506101f661089f565b6040516102039190610d0a565b60405180910390f35b61022660048036038101906102219190610e0f565b6108a7565b005b34801561023457600080fd5b5061024f600480360381019061024a9190610cc4565b610b23565b60405161025d929190610e3c565b60405180910390f35b34801561027257600080fd5b5061028d60048036038101906102889190610cc4565b610b47565b60405161029a9190610d0a565b60405180910390f35b3480156102af57600080fd5b506102b8610b5f565b6040516102c59190610f23565b60405180910390f35b60046020528060005260406000206000915090505481565b6002600660008373ffffffffffffffffffffffffffffffffffffffff1673ffffffffffffffffffffffffffffffffffffffff16815260200190815260200160002081905550806001800160006001600001600081548092919061034890610f74565b91905055815260200190815260200160002060006101000a81548173ffffffffffffffffffffffffffffffffffffffff021916908373ffffffffffffffffffffffffffffffffffffffff16021790555050565b6001600660008373ffffffffffffffffffffffffffffffffffffffff1673ffffffffffffffffffffffffffffffffffffffff1681526020019081526020016000208190555050565b6001600660003373ffffffffffffffffffffffffffffffffffffffff1673ffffffffffffffffffffffffffffffffffffffff168152602001908152602001600020541461042f57600080fd5b6000600560003373ffffffffffffffffffffffffffffffffffffffff1673ffffffffffffffffffffffffffffffffffffffff1681526020019081526020016000206000018190555080600560003373ffffffffffffffffffffffffffffffffffffffff1673ffffffffffffffffffffffffffffffffffffffff1681526020019081526020016000206001018190555050565b6002600660003373ffffffffffffffffffffffffffffffffffffffff1673ffffffffffffffffffffffffffffffffffffffff168152602001908152602001600020541461050d57600080fd5b6001600660008573ffffffffffffffffffffffffffffffffffffffff1673ffffffffffffffffffffffffffffffffffffffff168152602001908152602001600020541461055957600080fd5b80600560008573ffffffffffffffffffffffffffffffffffffffff1673ffffffffffffffffffffffffffffffffffffffff1681526020019081526020016000206000018190555081600560008573ffffffffffffffffffffffffffffffffffffffff1673ffffffffffffffffffffffffffffffffffffffff16815260200190815260200160002060010181905550505050565b60008054906101000a900473ffffffffffffffffffffffffffffffffffffffff1673ffffffffffffffffffffffffffffffffffffffff163373ffffffffffffffffffffffffffffffffffffffff161461064457600080fd5b3373ffffffffffffffffffffffffffffffffffffffff1660008054906101000a900473ffffffffffffffffffffffffffffffffffffffff1673ffffffffffffffffffffffffffffffffffffffff161461069c57600080fd5b6000600660008373ffffffffffffffffffffffffffffffffffffffff1673ffffffffffffffffffffffffffffffffffffffff16815260200190815260200160002054036106e857600080fd5b6002600660008373ffffffffffffffffffffffffffffffffffffffff1673ffffffffffffffffffffffffffffffffffffffff16815260200190815260200160002054036108105760005b6001600001548110156107f3578173ffffffffffffffffffffffffffffffffffffffff1660018001600083815260200190815260200160002060009054906101000a900473ffffffffffffffffffffffffffffffffffffffff1673ffffffffffffffffffffffffffffffffffffffff16036107e05760018001600082815260200190815260200160002060006101000a81549073ffffffffffffffffffffffffffffffffffffffff02191690555b80806107eb90610f74565b915050610732565b506001600001600081548092919061080a90610fbc565b91905055505b6000600660008373ffffffffffffffffffffffffffffffffffffffff1673ffffffffffffffffffffffffffffffffffffffff1681526020019081526020016000208190555050565b6000600460003373ffffffffffffffffffffffffffffffffffffffff1673ffffffffffffffffffffffffffffffffffffffff16815260200190815260200160002054905090565b600047905090565b6001600660003373ffffffffffffffffffffffffffffffffffffffff1673ffffffffffffffffffffffffffffffffffffffff16815260200190815260200160002054146108f357600080fd5b60006002600660008473ffffffffffffffffffffffffffffffffffffffff1673ffffffffffffffffffffffffffffffffffffffff168152602001908152602001600020541461094157600080fd5b6064600460003373ffffffffffffffffffffffffffffffffffffffff1673ffffffffffffffffffffffffffffffffffffffff1681526020019081526020016000205410610a2057600090506064600460003373ffffffffffffffffffffffffffffffffffffffff1673ffffffffffffffffffffffffffffffffffffffff168152602001908152602001600020546109d89190610fe5565b600460003373ffffffffffffffffffffffffffffffffffffffff1673ffffffffffffffffffffffffffffffffffffffff16815260200190815260200160002081905550610ad8565b6064346003546064610a329190610fe5565b610a3c9190611019565b610a4691906110a2565b9050600a600460003373ffffffffffffffffffffffffffffffffffffffff1673ffffffffffffffffffffffffffffffffffffffff16815260200190815260200160002054610a9491906110d3565b600460003373ffffffffffffffffffffffffffffffffffffffff1673ffffffffffffffffffffffffffffffffffffffff168152602001908152602001600020819055505b8173ffffffffffffffffffffffffffffffffffffffff166108fc829081150290604051600060405180830381858888f19350505050158015610b1e573d6000803e3d6000fd5b505050565b60056020528060005260406000206000915090508060000154908060010154905082565b60066020528060005260406000206000915090505481565b6060600060016000015467ffffffffffffffff811115610b8257610b81611129565b5b604051908082528060200260200182016040528015610bb05781602001602082028036833780820191505090505b50905060005b600160000154811015610c595760018001600082815260200190815260200160002060009054906101000a900473ffffffffffffffffffffffffffffffffffffffff16828281518110610c0c57610c0b611158565b5b602002602001019073ffffffffffffffffffffffffffffffffffffffff16908173ffffffffffffffffffffffffffffffffffffffff16815250508080610c5190610f74565b915050610bb6565b508091505090565b600080fd5b600073ffffffffffffffffffffffffffffffffffffffff82169050919050565b6000610c9182610c66565b9050919050565b610ca181610c86565b8114610cac57600080fd5b50565b600081359050610cbe81610c98565b92915050565b600060208284031215610cda57610cd9610c61565b5b6000610ce884828501610caf565b91505092915050565b6000819050919050565b610d0481610cf1565b82525050565b6000602082019050610d1f6000830184610cfb565b92915050565b610d2e81610cf1565b8114610d3957600080fd5b50565b600081359050610d4b81610d25565b92915050565b600060208284031215610d6757610d66610c61565b5b6000610d7584828501610d3c565b91505092915050565b600080600060608486031215610d9757610d96610c61565b5b6000610da586828701610caf565b9350506020610db686828701610d3c565b9250506040610dc786828701610d3c565b9150509250925092565b6000610ddc82610c66565b9050919050565b610dec81610dd1565b8114610df757600080fd5b50565b600081359050610e0981610de3565b92915050565b600060208284031215610e2557610e24610c61565b5b6000610e3384828501610dfa565b91505092915050565b6000604082019050610e516000830185610cfb565b610e5e6020830184610cfb565b9392505050565b600081519050919050565b600082825260208201905092915050565b6000819050602082019050919050565b610e9a81610c86565b82525050565b6000610eac8383610e91565b60208301905092915050565b6000602082019050919050565b6000610ed082610e65565b610eda8185610e70565b9350610ee583610e81565b8060005b83811015610f16578151610efd8882610ea0565b9750610f0883610eb8565b925050600181019050610ee9565b5085935050505092915050565b60006020820190508181036000830152610f3d8184610ec5565b905092915050565b7f4e487b7100000000000000000000000000000000000000000000000000000000600052601160045260246000fd5b6000610f7f82610cf1565b91507fffffffffffffffffffffffffffffffffffffffffffffffffffffffffffffffff8203610fb157610fb0610f45565b5b600182019050919050565b6000610fc782610cf1565b915060008203610fda57610fd9610f45565b5b600182039050919050565b6000610ff082610cf1565b9150610ffb83610cf1565b92508282101561100e5761100d610f45565b5b828203905092915050565b600061102482610cf1565b915061102f83610cf1565b9250817fffffffffffffffffffffffffffffffffffffffffffffffffffffffffffffffff048311821515161561106857611067610f45565b5b828202905092915050565b7f4e487b7100000000000000000000000000000000000000000000000000000000600052601260045260246000fd5b60006110ad82610cf1565b91506110b883610cf1565b9250826110c8576110c7611073565b5b828204905092915050565b60006110de82610cf1565b91506110e983610cf1565b9250827fffffffffffffffffffffffffffffffffffffffffffffffffffffffffffffffff0382111561111e5761111d610f45565b5b828201905092915050565b7f4e487b7100000000000000000000000000000000000000000000000000000000600052604160045260246000fd5b7f4e487b7100000000000000000000000000000000000000000000000000000000600052603260045260246000fdfea2646970667358221220c813b5f0e04e51a3249aaccd72b3d57b2ffe641ef257d58bdea185ec1667155b64736f6c634300080d0033",
  "immutableReferences": {},
  "source": "// SPDX-License-Identifier: GPL-3.0\n\npragma solidity ^0.8.13;\n\ncontract RushCon{\n    address chairperson;\n\n    struct matchInfo{\n        uint status;\n        uint hashOfDetails;\n    }\n\n    struct providers{\n        uint numProviders;\n        mapping (uint =>address) providerList;\n    }\n\n    providers allProviders;\n\n    uint commission = 20;\n    mapping (address=>uint) public rewards;\n    mapping (address=>matchInfo) public matchDetails;\n    mapping (address=>uint) public registered;\n\n    modifier onlyChairperson{\n        require(msg.sender == chairperson);\n        _;\n    }\n\n    modifier onlyUser{\n        require(registered[msg.sender] == 1);\n        _;\n    }\n\n    modifier onlyProvider{\n        require(registered[msg.sender] == 2);\n        _;\n    }\n\n    constructor() payable{\n        chairperson = msg.sender;\n        payable(address(this)).transfer(msg.value);  // can send some value to the contract initially\n    }\n\n    function viewBalance() public view returns(uint) {\n        return address(this).balance;\n    }\n\n    function viewRewards() public view returns(uint) {\n        return rewards[msg.sender];\n    }\n\n    function getProviders() public view returns(address[] memory){\n        address[] memory addressArray = new address[](allProviders.numProviders);\n        for(uint i = 0; i < allProviders.numProviders; i++) {\n            addressArray[i] = allProviders.providerList[i];\n        }\n        return addressArray;\n    }\n\n    function registerUser(address user) public {\n        registered[user] = 1;\n    }\n\n    function registerProvider(address provider) public {\n        registered[provider] = 2;\n        allProviders.providerList[allProviders.numProviders++] = provider;\n    }\n\n    function unregister(address member) onlyChairperson public{\n        if(chairperson != msg.sender){\n            revert();\n        }\n        if(registered[member] == 0){\n            revert();\n        }\n        if(registered[member] == 2){\n            for(uint i = 0; i < allProviders.numProviders; i++) {\n                if(allProviders.providerList[i] == member){\n                    delete allProviders.providerList[i];\n                }\n            }\n            allProviders.numProviders--;\n        }\n        registered[member] = 0;\n    }\n\n    function requestStream(uint hashOfDetails) onlyUser public{\n        matchDetails[msg.sender].status = 0;\n        matchDetails[msg.sender].hashOfDetails = hashOfDetails;\n    }\n\n    function responseStream(address user, uint hashOfDetails, uint status) onlyProvider public{\n        if(registered[user] != 1){\n            revert();\n        }\n        matchDetails[user].status = status;\n        matchDetails[user].hashOfDetails = hashOfDetails;\n    }\n\n    function confirmPayment(address payable channel) onlyUser payable public{\n        uint amount;\n        if(registered[channel] != 2){\n            revert();\n        }\n        if(rewards[msg.sender] >= 100){\n            amount = 0;\n            rewards[msg.sender] = rewards[msg.sender] - 100;\n        }\n        else{\n            amount = (uint)(((100-commission)*msg.value)/100);\n            rewards[msg.sender] = rewards[msg.sender] + 10;\n        }\n        channel.transfer(amount);\n    }\n}",
  "sourcePath": "D:\\academics\\ub_cse\\526_BIA\\project\\Rush-Dapp\\rush-contract\\contracts\\RushCon.sol",
  "compiler": {
    "name": "solc",
    "version": "0.8.13+commit.abaa5c0e.Emscripten.clang"
  },
  "schemaVersion": "3.4.6",
  "updatedAt": "2022-04-17T08:03:15.489Z",
  "networkType": "ethereum",
  "devdoc": {
    "kind": "dev",
    "methods": {},
    "version": 1
  },
  "userdoc": {
    "kind": "user",
    "methods": {},
    "version": 1
  }
}