{
  "contractName": "RushCon",
  "abi": [
    {
      "inputs": [],
      "stateMutability": "payable",
      "type": "constructor",
      "payable": true
    },
    {
      "inputs": [
        {
          "internalType": "address",
          "name": "",
          "type": "address"
        }
      ],
      "name": "matchDetails",
      "outputs": [
        {
          "internalType": "uint256",
          "name": "status",
          "type": "uint256"
        },
        {
          "internalType": "uint256",
          "name": "matchNumber",
          "type": "uint256"
        },
        {
          "internalType": "uint256",
          "name": "matchDuration",
          "type": "uint256"
        }
      ],
      "stateMutability": "view",
      "type": "function",
      "constant": true
    },
    {
      "inputs": [
        {
          "internalType": "address",
          "name": "",
          "type": "address"
        }
      ],
      "name": "registered",
      "outputs": [
        {
          "internalType": "uint256",
          "name": "",
          "type": "uint256"
        }
      ],
      "stateMutability": "view",
      "type": "function",
      "constant": true
    },
    {
      "inputs": [
        {
          "internalType": "address",
          "name": "",
          "type": "address"
        }
      ],
      "name": "rewards",
      "outputs": [
        {
          "internalType": "uint256",
          "name": "",
          "type": "uint256"
        }
      ],
      "stateMutability": "view",
      "type": "function",
      "constant": true
    },
    {
      "inputs": [],
      "name": "viewCommission",
      "outputs": [
        {
          "internalType": "uint256",
          "name": "",
          "type": "uint256"
        }
      ],
      "stateMutability": "view",
      "type": "function",
      "constant": true
    },
    {
      "inputs": [],
      "name": "viewRewards",
      "outputs": [
        {
          "internalType": "uint256",
          "name": "",
          "type": "uint256"
        }
      ],
      "stateMutability": "view",
      "type": "function",
      "constant": true
    },
    {
      "inputs": [],
      "name": "getProviders",
      "outputs": [
        {
          "internalType": "address[]",
          "name": "",
          "type": "address[]"
        }
      ],
      "stateMutability": "view",
      "type": "function",
      "constant": true
    },
    {
      "inputs": [
        {
          "internalType": "address",
          "name": "user",
          "type": "address"
        }
      ],
      "name": "registerUser",
      "outputs": [],
      "stateMutability": "nonpayable",
      "type": "function"
    },
    {
      "inputs": [
        {
          "internalType": "address",
          "name": "provider",
          "type": "address"
        }
      ],
      "name": "registerProvider",
      "outputs": [],
      "stateMutability": "nonpayable",
      "type": "function"
    },
    {
      "inputs": [
        {
          "internalType": "address",
          "name": "member",
          "type": "address"
        }
      ],
      "name": "unregister",
      "outputs": [],
      "stateMutability": "nonpayable",
      "type": "function"
    },
    {
      "inputs": [
        {
          "internalType": "uint256",
          "name": "matchId",
          "type": "uint256"
        },
        {
          "internalType": "uint256",
          "name": "duration",
          "type": "uint256"
        }
      ],
      "name": "requestStream",
      "outputs": [],
      "stateMutability": "nonpayable",
      "type": "function"
    },
    {
      "inputs": [
        {
          "internalType": "address",
          "name": "user",
          "type": "address"
        },
        {
          "internalType": "uint256",
          "name": "status",
          "type": "uint256"
        }
      ],
      "name": "responseStream",
      "outputs": [],
      "stateMutability": "nonpayable",
      "type": "function"
    },
    {
      "inputs": [
        {
          "internalType": "address payable",
          "name": "channel",
          "type": "address"
        }
      ],
      "name": "confirmPayment",
      "outputs": [],
      "stateMutability": "payable",
      "type": "function",
      "payable": true
    }
  ],
  "bytecode": "0x60806040526014600355336000806101000a81548173ffffffffffffffffffffffffffffffffffffffff021916908373ffffffffffffffffffffffffffffffffffffffff1602179055503073ffffffffffffffffffffffffffffffffffffffff166108fc349081150290604051600060405180830381858888f1935050505015801561008f573d6000803e3d6000fd5b506112778061009f6000396000f3fe6080604052600436106100a75760003560e01c806382e2d0851161006457806382e2d085146101ab578063874c86d7146101ea578063b2dd5c0714610215578063c39119ec14610252578063dabffa831461027b578063edc922a9146102a4576100a7565b80630700037d146100ac5780630e260016146100e95780632199d5cd146101125780632ec2c2461461013b5780633dfa83b3146101645780634b76ef1c1461018f575b600080fd5b3480156100b857600080fd5b506100d360048036038101906100ce9190610d70565b6102cf565b6040516100e09190610db6565b60405180910390f35b3480156100f557600080fd5b50610110600480360381019061010b9190610d70565b6102e7565b005b34801561011e57600080fd5b5061013960048036038101906101349190610d70565b61039c565b005b34801561014757600080fd5b50610162600480360381019061015d9190610d70565b6103e4565b005b34801561017057600080fd5b50610179610650565b6040516101869190610db6565b60405180910390f35b6101a960048036038101906101a49190610e0f565b6106e3565b005b3480156101b757600080fd5b506101d260048036038101906101cd9190610d70565b61095f565b6040516101e193929190610e3c565b60405180910390f35b3480156101f657600080fd5b506101ff610989565b60405161020c9190610db6565b60405180910390f35b34801561022157600080fd5b5061023c60048036038101906102379190610d70565b6109ea565b6040516102499190610db6565b60405180910390f35b34801561025e57600080fd5b5061027960048036038101906102749190610e9f565b610a02565b005b34801561028757600080fd5b506102a2600480360381019061029d9190610edf565b610b28565b005b3480156102b057600080fd5b506102b9610c0b565b6040516102c69190610fdd565b60405180910390f35b60046020528060005260406000206000915090505481565b6002600660008373ffffffffffffffffffffffffffffffffffffffff1673ffffffffffffffffffffffffffffffffffffffff1681526020019081526020016000208190555080600180016000600160000160008154809291906103499061102e565b91905055815260200190815260200160002060006101000a81548173ffffffffffffffffffffffffffffffffffffffff021916908373ffffffffffffffffffffffffffffffffffffffff16021790555050565b6001600660008373ffffffffffffffffffffffffffffffffffffffff1673ffffffffffffffffffffffffffffffffffffffff1681526020019081526020016000208190555050565b60008054906101000a900473ffffffffffffffffffffffffffffffffffffffff1673ffffffffffffffffffffffffffffffffffffffff163373ffffffffffffffffffffffffffffffffffffffff161461043c57600080fd5b3373ffffffffffffffffffffffffffffffffffffffff1660008054906101000a900473ffffffffffffffffffffffffffffffffffffffff1673ffffffffffffffffffffffffffffffffffffffff161461049457600080fd5b6000600660008373ffffffffffffffffffffffffffffffffffffffff1673ffffffffffffffffffffffffffffffffffffffff16815260200190815260200160002054036104e057600080fd5b6002600660008373ffffffffffffffffffffffffffffffffffffffff1673ffffffffffffffffffffffffffffffffffffffff16815260200190815260200160002054036106085760005b6001600001548110156105eb578173ffffffffffffffffffffffffffffffffffffffff1660018001600083815260200190815260200160002060009054906101000a900473ffffffffffffffffffffffffffffffffffffffff1673ffffffffffffffffffffffffffffffffffffffff16036105d85760018001600082815260200190815260200160002060006101000a81549073ffffffffffffffffffffffffffffffffffffffff02191690555b80806105e39061102e565b91505061052a565b506001600001600081548092919061060290611076565b91905055505b6000600660008373ffffffffffffffffffffffffffffffffffffffff1673ffffffffffffffffffffffffffffffffffffffff1681526020019081526020016000208190555050565b60006001600660003373ffffffffffffffffffffffffffffffffffffffff1673ffffffffffffffffffffffffffffffffffffffff168152602001908152602001600020541461069e57600080fd5b600460003373ffffffffffffffffffffffffffffffffffffffff1673ffffffffffffffffffffffffffffffffffffffff16815260200190815260200160002054905090565b6001600660003373ffffffffffffffffffffffffffffffffffffffff1673ffffffffffffffffffffffffffffffffffffffff168152602001908152602001600020541461072f57600080fd5b60006002600660008473ffffffffffffffffffffffffffffffffffffffff1673ffffffffffffffffffffffffffffffffffffffff168152602001908152602001600020541461077d57600080fd5b6064600460003373ffffffffffffffffffffffffffffffffffffffff1673ffffffffffffffffffffffffffffffffffffffff168152602001908152602001600020541061085c57600090506064600460003373ffffffffffffffffffffffffffffffffffffffff1673ffffffffffffffffffffffffffffffffffffffff16815260200190815260200160002054610814919061109f565b600460003373ffffffffffffffffffffffffffffffffffffffff1673ffffffffffffffffffffffffffffffffffffffff16815260200190815260200160002081905550610914565b606434600354606461086e919061109f565b61087891906110d3565b610882919061115c565b9050600a600460003373ffffffffffffffffffffffffffffffffffffffff1673ffffffffffffffffffffffffffffffffffffffff168152602001908152602001600020546108d0919061118d565b600460003373ffffffffffffffffffffffffffffffffffffffff1673ffffffffffffffffffffffffffffffffffffffff168152602001908152602001600020819055505b8173ffffffffffffffffffffffffffffffffffffffff166108fc829081150290604051600060405180830381858888f1935050505015801561095a573d6000803e3d6000fd5b505050565b60056020528060005260406000206000915090508060000154908060010154908060020154905083565b60008060009054906101000a900473ffffffffffffffffffffffffffffffffffffffff1673ffffffffffffffffffffffffffffffffffffffff163373ffffffffffffffffffffffffffffffffffffffff16146109e457600080fd5b47905090565b60066020528060005260406000206000915090505481565b6001600660003373ffffffffffffffffffffffffffffffffffffffff1673ffffffffffffffffffffffffffffffffffffffff1681526020019081526020016000205414610a4e57600080fd5b6000600560003373ffffffffffffffffffffffffffffffffffffffff1673ffffffffffffffffffffffffffffffffffffffff1681526020019081526020016000206000018190555081600560003373ffffffffffffffffffffffffffffffffffffffff1673ffffffffffffffffffffffffffffffffffffffff1681526020019081526020016000206001018190555080600560003373ffffffffffffffffffffffffffffffffffffffff1673ffffffffffffffffffffffffffffffffffffffff168152602001908152602001600020600201819055505050565b6002600660003373ffffffffffffffffffffffffffffffffffffffff1673ffffffffffffffffffffffffffffffffffffffff1681526020019081526020016000205414610b7457600080fd5b6001600660008473ffffffffffffffffffffffffffffffffffffffff1673ffffffffffffffffffffffffffffffffffffffff1681526020019081526020016000205414610bc057600080fd5b80600560008473ffffffffffffffffffffffffffffffffffffffff1673ffffffffffffffffffffffffffffffffffffffff168152602001908152602001600020600001819055505050565b6060600060016000015467ffffffffffffffff811115610c2e57610c2d6111e3565b5b604051908082528060200260200182016040528015610c5c5781602001602082028036833780820191505090505b50905060005b600160000154811015610d055760018001600082815260200190815260200160002060009054906101000a900473ffffffffffffffffffffffffffffffffffffffff16828281518110610cb857610cb7611212565b5b602002602001019073ffffffffffffffffffffffffffffffffffffffff16908173ffffffffffffffffffffffffffffffffffffffff16815250508080610cfd9061102e565b915050610c62565b508091505090565b600080fd5b600073ffffffffffffffffffffffffffffffffffffffff82169050919050565b6000610d3d82610d12565b9050919050565b610d4d81610d32565b8114610d5857600080fd5b50565b600081359050610d6a81610d44565b92915050565b600060208284031215610d8657610d85610d0d565b5b6000610d9484828501610d5b565b91505092915050565b6000819050919050565b610db081610d9d565b82525050565b6000602082019050610dcb6000830184610da7565b92915050565b6000610ddc82610d12565b9050919050565b610dec81610dd1565b8114610df757600080fd5b50565b600081359050610e0981610de3565b92915050565b600060208284031215610e2557610e24610d0d565b5b6000610e3384828501610dfa565b91505092915050565b6000606082019050610e516000830186610da7565b610e5e6020830185610da7565b610e6b6040830184610da7565b949350505050565b610e7c81610d9d565b8114610e8757600080fd5b50565b600081359050610e9981610e73565b92915050565b60008060408385031215610eb657610eb5610d0d565b5b6000610ec485828601610e8a565b9250506020610ed585828601610e8a565b9150509250929050565b60008060408385031215610ef657610ef5610d0d565b5b6000610f0485828601610d5b565b9250506020610f1585828601610e8a565b9150509250929050565b600081519050919050565b600082825260208201905092915050565b6000819050602082019050919050565b610f5481610d32565b82525050565b6000610f668383610f4b565b60208301905092915050565b6000602082019050919050565b6000610f8a82610f1f565b610f948185610f2a565b9350610f9f83610f3b565b8060005b83811015610fd0578151610fb78882610f5a565b9750610fc283610f72565b925050600181019050610fa3565b5085935050505092915050565b60006020820190508181036000830152610ff78184610f7f565b905092915050565b7f4e487b7100000000000000000000000000000000000000000000000000000000600052601160045260246000fd5b600061103982610d9d565b91507fffffffffffffffffffffffffffffffffffffffffffffffffffffffffffffffff820361106b5761106a610fff565b5b600182019050919050565b600061108182610d9d565b91506000820361109457611093610fff565b5b600182039050919050565b60006110aa82610d9d565b91506110b583610d9d565b9250828210156110c8576110c7610fff565b5b828203905092915050565b60006110de82610d9d565b91506110e983610d9d565b9250817fffffffffffffffffffffffffffffffffffffffffffffffffffffffffffffffff048311821515161561112257611121610fff565b5b828202905092915050565b7f4e487b7100000000000000000000000000000000000000000000000000000000600052601260045260246000fd5b600061116782610d9d565b915061117283610d9d565b9250826111825761118161112d565b5b828204905092915050565b600061119882610d9d565b91506111a383610d9d565b9250827fffffffffffffffffffffffffffffffffffffffffffffffffffffffffffffffff038211156111d8576111d7610fff565b5b828201905092915050565b7f4e487b7100000000000000000000000000000000000000000000000000000000600052604160045260246000fd5b7f4e487b7100000000000000000000000000000000000000000000000000000000600052603260045260246000fdfea2646970667358221220eaeb7f176f14ccbc3a3a514749c809d309951f061d1bf278fd40d68e1150547464736f6c634300080d0033",
  "immutableReferences": {},
  "source": "// SPDX-License-Identifier: GPL-3.0\n\npragma solidity ^0.8.13;\n\ncontract RushCon{\n    address chairperson;\n\n    struct matchInfo{\n        uint status;\n        uint matchNumber;\n        uint matchDuration;\n    }\n\n    struct providers{\n        uint numProviders;\n        mapping (uint =>address) providerList;\n    }\n\n    providers allProviders;\n\n    uint commission = 20;\n    mapping (address=>uint) public rewards;\n    mapping (address=>matchInfo) public matchDetails;\n    mapping (address=>uint) public registered;\n\n    modifier onlyChairperson{\n        require(msg.sender == chairperson);\n        _;\n    }\n\n    modifier onlyUser{\n        require(registered[msg.sender] == 1);\n        _;\n    }\n\n    modifier onlyProvider{\n        require(registered[msg.sender] == 2);\n        _;\n    }\n\n    constructor() payable{\n        chairperson = msg.sender;\n        payable(address(this)).transfer(msg.value);  // can send some value to the contract initially\n    }\n\n    function viewCommission() public view onlyChairperson returns(uint) {\n        return address(this).balance;\n    }\n\n    function viewRewards() public view onlyUser returns(uint) {\n        return rewards[msg.sender];\n    }\n\n    function getProviders() public view returns(address[] memory){\n        address[] memory addressArray = new address[](allProviders.numProviders);\n        for(uint i = 0; i < allProviders.numProviders; i++) {\n            addressArray[i] = allProviders.providerList[i];\n        }\n        return addressArray;\n    }\n\n    function registerUser(address user) public {\n        registered[user] = 1;\n    }\n\n    function registerProvider(address provider) public {\n        registered[provider] = 2;\n        allProviders.providerList[allProviders.numProviders++] = provider;\n    }\n\n    function unregister(address member) onlyChairperson public{\n        if(chairperson != msg.sender){\n            revert();\n        }\n        if(registered[member] == 0){\n            revert();\n        }\n        if(registered[member] == 2){\n            for(uint i = 0; i < allProviders.numProviders; i++) {\n                if(allProviders.providerList[i] == member){\n                    delete allProviders.providerList[i];\n                }\n            }\n            allProviders.numProviders--;\n        }\n        registered[member] = 0;\n    }\n\n    function requestStream(uint matchId, uint duration) onlyUser public{\n        matchDetails[msg.sender].status = 0;\n        matchDetails[msg.sender].matchNumber = matchId;\n        matchDetails[msg.sender].matchDuration = duration;\n    }\n\n    function responseStream(address user, uint status) onlyProvider public{\n        if(registered[user] != 1){\n            revert();\n        }\n        matchDetails[user].status = status;\n    }\n\n    function confirmPayment(address payable channel) onlyUser payable public{\n        uint amount;\n        if(registered[channel] != 2){\n            revert();\n        }\n        if(rewards[msg.sender] >= 100){\n            amount = 0;\n            rewards[msg.sender] = rewards[msg.sender] - 100;\n        }\n        else{\n            amount = (uint)(((100-commission)*msg.value)/100);\n            rewards[msg.sender] = rewards[msg.sender] + 10;\n        }\n        channel.transfer(amount);\n    }\n}",
  "sourcePath": "D:\\academics\\ub_cse\\526_BIA\\project\\Rush-Dapp\\rush-contract\\contracts\\RushCon.sol",
  "compiler": {
    "name": "solc",
    "version": "0.8.13+commit.abaa5c0e.Emscripten.clang"
  },
  "schemaVersion": "3.4.6",
  "updatedAt": "2022-04-17T18:39:05.843Z",
  "networkType": "ethereum",
  "devdoc": {
    "kind": "dev",
    "methods": {},
    "version": 1
  },
  "userdoc": {
    "kind": "user",
    "methods": {},
    "version": 1
  }
}