{
  "contractName": "RushCon",
  "abi": [
    {
      "inputs": [],
      "stateMutability": "payable",
      "type": "constructor",
      "payable": true
    },
    {
      "inputs": [
        {
          "internalType": "address",
          "name": "",
          "type": "address"
        }
      ],
      "name": "matchDetails",
      "outputs": [
        {
          "internalType": "uint256",
          "name": "status",
          "type": "uint256"
        },
        {
          "internalType": "uint256",
          "name": "matchNumber",
          "type": "uint256"
        },
        {
          "internalType": "uint256",
          "name": "matchDuration",
          "type": "uint256"
        }
      ],
      "stateMutability": "view",
      "type": "function",
      "constant": true
    },
    {
      "inputs": [
        {
          "internalType": "address",
          "name": "",
          "type": "address"
        }
      ],
      "name": "registered",
      "outputs": [
        {
          "internalType": "uint256",
          "name": "",
          "type": "uint256"
        }
      ],
      "stateMutability": "view",
      "type": "function",
      "constant": true
    },
    {
      "inputs": [
        {
          "internalType": "address",
          "name": "",
          "type": "address"
        }
      ],
      "name": "rewards",
      "outputs": [
        {
          "internalType": "uint256",
          "name": "",
          "type": "uint256"
        }
      ],
      "stateMutability": "view",
      "type": "function",
      "constant": true
    },
    {
      "inputs": [],
      "name": "viewCommission",
      "outputs": [
        {
          "internalType": "uint256",
          "name": "",
          "type": "uint256"
        }
      ],
      "stateMutability": "view",
      "type": "function",
      "constant": true
    },
    {
      "inputs": [],
      "name": "viewRewards",
      "outputs": [
        {
          "internalType": "uint256",
          "name": "",
          "type": "uint256"
        }
      ],
      "stateMutability": "view",
      "type": "function",
      "constant": true
    },
    {
      "inputs": [],
      "name": "getProviders",
      "outputs": [
        {
          "internalType": "address[]",
          "name": "",
          "type": "address[]"
        }
      ],
      "stateMutability": "view",
      "type": "function",
      "constant": true
    },
    {
      "inputs": [
        {
          "internalType": "address",
          "name": "user",
          "type": "address"
        }
      ],
      "name": "registerUser",
      "outputs": [],
      "stateMutability": "nonpayable",
      "type": "function"
    },
    {
      "inputs": [
        {
          "internalType": "address",
          "name": "provider",
          "type": "address"
        }
      ],
      "name": "registerProvider",
      "outputs": [],
      "stateMutability": "nonpayable",
      "type": "function"
    },
    {
      "inputs": [
        {
          "internalType": "address",
          "name": "member",
          "type": "address"
        }
      ],
      "name": "unregister",
      "outputs": [],
      "stateMutability": "nonpayable",
      "type": "function"
    },
    {
      "inputs": [
        {
          "internalType": "uint256",
          "name": "matchId",
          "type": "uint256"
        },
        {
          "internalType": "uint256",
          "name": "duration",
          "type": "uint256"
        }
      ],
      "name": "requestStream",
      "outputs": [],
      "stateMutability": "nonpayable",
      "type": "function"
    },
    {
      "inputs": [
        {
          "internalType": "address",
          "name": "user",
          "type": "address"
        },
        {
          "internalType": "uint256",
          "name": "status",
          "type": "uint256"
        }
      ],
      "name": "responseStream",
      "outputs": [],
      "stateMutability": "nonpayable",
      "type": "function"
    },
    {
      "inputs": [
        {
          "internalType": "address payable",
          "name": "channel",
          "type": "address"
        }
      ],
      "name": "confirmPayment",
      "outputs": [],
      "stateMutability": "payable",
      "type": "function",
      "payable": true
    }
  ],
  "bytecode": "0x60806040526014600355336000806101000a81548173ffffffffffffffffffffffffffffffffffffffff021916908373ffffffffffffffffffffffffffffffffffffffff1602179055503073ffffffffffffffffffffffffffffffffffffffff166108fc349081150290604051600060405180830381858888f1935050505015801561008f573d6000803e3d6000fd5b506111c68061009f6000396000f3fe6080604052600436106100a75760003560e01c806382e2d0851161006457806382e2d085146101ab578063874c86d7146101ea578063b2dd5c0714610215578063c39119ec14610252578063dabffa831461027b578063edc922a9146102a4576100a7565b80630700037d146100ac5780630e260016146100e95780632199d5cd146101125780632ec2c2461461013b5780633dfa83b3146101645780634b76ef1c1461018f575b600080fd5b3480156100b857600080fd5b506100d360048036038101906100ce9190610cbf565b6102cf565b6040516100e09190610d05565b60405180910390f35b3480156100f557600080fd5b50610110600480360381019061010b9190610cbf565b6102e7565b005b34801561011e57600080fd5b5061013960048036038101906101349190610cbf565b61039c565b005b34801561014757600080fd5b50610162600480360381019061015d9190610cbf565b6103e4565b005b34801561017057600080fd5b506101796105f8565b6040516101869190610d05565b60405180910390f35b6101a960048036038101906101a49190610d5e565b61068b565b005b3480156101b757600080fd5b506101d260048036038101906101cd9190610cbf565b610907565b6040516101e193929190610d8b565b60405180910390f35b3480156101f657600080fd5b506101ff610931565b60405161020c9190610d05565b60405180910390f35b34801561022157600080fd5b5061023c60048036038101906102379190610cbf565b610939565b6040516102499190610d05565b60405180910390f35b34801561025e57600080fd5b5061027960048036038101906102749190610dee565b610951565b005b34801561028757600080fd5b506102a2600480360381019061029d9190610e2e565b610a77565b005b3480156102b057600080fd5b506102b9610b5a565b6040516102c69190610f2c565b60405180910390f35b60046020528060005260406000206000915090505481565b6002600660008373ffffffffffffffffffffffffffffffffffffffff1673ffffffffffffffffffffffffffffffffffffffff16815260200190815260200160002081905550806001800160006001600001600081548092919061034990610f7d565b91905055815260200190815260200160002060006101000a81548173ffffffffffffffffffffffffffffffffffffffff021916908373ffffffffffffffffffffffffffffffffffffffff16021790555050565b6001600660008373ffffffffffffffffffffffffffffffffffffffff1673ffffffffffffffffffffffffffffffffffffffff1681526020019081526020016000208190555050565b60008054906101000a900473ffffffffffffffffffffffffffffffffffffffff1673ffffffffffffffffffffffffffffffffffffffff163373ffffffffffffffffffffffffffffffffffffffff161461043c57600080fd5b6000600660008373ffffffffffffffffffffffffffffffffffffffff1673ffffffffffffffffffffffffffffffffffffffff168152602001908152602001600020540361048857600080fd5b6002600660008373ffffffffffffffffffffffffffffffffffffffff1673ffffffffffffffffffffffffffffffffffffffff16815260200190815260200160002054036105b05760005b600160000154811015610593578173ffffffffffffffffffffffffffffffffffffffff1660018001600083815260200190815260200160002060009054906101000a900473ffffffffffffffffffffffffffffffffffffffff1673ffffffffffffffffffffffffffffffffffffffff16036105805760018001600082815260200190815260200160002060006101000a81549073ffffffffffffffffffffffffffffffffffffffff02191690555b808061058b90610f7d565b9150506104d2565b50600160000160008154809291906105aa90610fc5565b91905055505b6000600660008373ffffffffffffffffffffffffffffffffffffffff1673ffffffffffffffffffffffffffffffffffffffff1681526020019081526020016000208190555050565b60006001600660003373ffffffffffffffffffffffffffffffffffffffff1673ffffffffffffffffffffffffffffffffffffffff168152602001908152602001600020541461064657600080fd5b600460003373ffffffffffffffffffffffffffffffffffffffff1673ffffffffffffffffffffffffffffffffffffffff16815260200190815260200160002054905090565b6001600660003373ffffffffffffffffffffffffffffffffffffffff1673ffffffffffffffffffffffffffffffffffffffff16815260200190815260200160002054146106d757600080fd5b60006002600660008473ffffffffffffffffffffffffffffffffffffffff1673ffffffffffffffffffffffffffffffffffffffff168152602001908152602001600020541461072557600080fd5b6064600460003373ffffffffffffffffffffffffffffffffffffffff1673ffffffffffffffffffffffffffffffffffffffff168152602001908152602001600020541061080457600090506064600460003373ffffffffffffffffffffffffffffffffffffffff1673ffffffffffffffffffffffffffffffffffffffff168152602001908152602001600020546107bc9190610fee565b600460003373ffffffffffffffffffffffffffffffffffffffff1673ffffffffffffffffffffffffffffffffffffffff168152602001908152602001600020819055506108bc565b60643460035460646108169190610fee565b6108209190611022565b61082a91906110ab565b9050600a600460003373ffffffffffffffffffffffffffffffffffffffff1673ffffffffffffffffffffffffffffffffffffffff1681526020019081526020016000205461087891906110dc565b600460003373ffffffffffffffffffffffffffffffffffffffff1673ffffffffffffffffffffffffffffffffffffffff168152602001908152602001600020819055505b8173ffffffffffffffffffffffffffffffffffffffff166108fc829081150290604051600060405180830381858888f19350505050158015610902573d6000803e3d6000fd5b505050565b60056020528060005260406000206000915090508060000154908060010154908060020154905083565b600047905090565b60066020528060005260406000206000915090505481565b6001600660003373ffffffffffffffffffffffffffffffffffffffff1673ffffffffffffffffffffffffffffffffffffffff168152602001908152602001600020541461099d57600080fd5b6000600560003373ffffffffffffffffffffffffffffffffffffffff1673ffffffffffffffffffffffffffffffffffffffff1681526020019081526020016000206000018190555081600560003373ffffffffffffffffffffffffffffffffffffffff1673ffffffffffffffffffffffffffffffffffffffff1681526020019081526020016000206001018190555080600560003373ffffffffffffffffffffffffffffffffffffffff1673ffffffffffffffffffffffffffffffffffffffff168152602001908152602001600020600201819055505050565b6002600660003373ffffffffffffffffffffffffffffffffffffffff1673ffffffffffffffffffffffffffffffffffffffff1681526020019081526020016000205414610ac357600080fd5b6001600660008473ffffffffffffffffffffffffffffffffffffffff1673ffffffffffffffffffffffffffffffffffffffff1681526020019081526020016000205414610b0f57600080fd5b80600560008473ffffffffffffffffffffffffffffffffffffffff1673ffffffffffffffffffffffffffffffffffffffff168152602001908152602001600020600001819055505050565b6060600060016000015467ffffffffffffffff811115610b7d57610b7c611132565b5b604051908082528060200260200182016040528015610bab5781602001602082028036833780820191505090505b50905060005b600160000154811015610c545760018001600082815260200190815260200160002060009054906101000a900473ffffffffffffffffffffffffffffffffffffffff16828281518110610c0757610c06611161565b5b602002602001019073ffffffffffffffffffffffffffffffffffffffff16908173ffffffffffffffffffffffffffffffffffffffff16815250508080610c4c90610f7d565b915050610bb1565b508091505090565b600080fd5b600073ffffffffffffffffffffffffffffffffffffffff82169050919050565b6000610c8c82610c61565b9050919050565b610c9c81610c81565b8114610ca757600080fd5b50565b600081359050610cb981610c93565b92915050565b600060208284031215610cd557610cd4610c5c565b5b6000610ce384828501610caa565b91505092915050565b6000819050919050565b610cff81610cec565b82525050565b6000602082019050610d1a6000830184610cf6565b92915050565b6000610d2b82610c61565b9050919050565b610d3b81610d20565b8114610d4657600080fd5b50565b600081359050610d5881610d32565b92915050565b600060208284031215610d7457610d73610c5c565b5b6000610d8284828501610d49565b91505092915050565b6000606082019050610da06000830186610cf6565b610dad6020830185610cf6565b610dba6040830184610cf6565b949350505050565b610dcb81610cec565b8114610dd657600080fd5b50565b600081359050610de881610dc2565b92915050565b60008060408385031215610e0557610e04610c5c565b5b6000610e1385828601610dd9565b9250506020610e2485828601610dd9565b9150509250929050565b60008060408385031215610e4557610e44610c5c565b5b6000610e5385828601610caa565b9250506020610e6485828601610dd9565b9150509250929050565b600081519050919050565b600082825260208201905092915050565b6000819050602082019050919050565b610ea381610c81565b82525050565b6000610eb58383610e9a565b60208301905092915050565b6000602082019050919050565b6000610ed982610e6e565b610ee38185610e79565b9350610eee83610e8a565b8060005b83811015610f1f578151610f068882610ea9565b9750610f1183610ec1565b925050600181019050610ef2565b5085935050505092915050565b60006020820190508181036000830152610f468184610ece565b905092915050565b7f4e487b7100000000000000000000000000000000000000000000000000000000600052601160045260246000fd5b6000610f8882610cec565b91507fffffffffffffffffffffffffffffffffffffffffffffffffffffffffffffffff8203610fba57610fb9610f4e565b5b600182019050919050565b6000610fd082610cec565b915060008203610fe357610fe2610f4e565b5b600182039050919050565b6000610ff982610cec565b915061100483610cec565b92508282101561101757611016610f4e565b5b828203905092915050565b600061102d82610cec565b915061103883610cec565b9250817fffffffffffffffffffffffffffffffffffffffffffffffffffffffffffffffff048311821515161561107157611070610f4e565b5b828202905092915050565b7f4e487b7100000000000000000000000000000000000000000000000000000000600052601260045260246000fd5b60006110b682610cec565b91506110c183610cec565b9250826110d1576110d061107c565b5b828204905092915050565b60006110e782610cec565b91506110f283610cec565b9250827fffffffffffffffffffffffffffffffffffffffffffffffffffffffffffffffff0382111561112757611126610f4e565b5b828201905092915050565b7f4e487b7100000000000000000000000000000000000000000000000000000000600052604160045260246000fd5b7f4e487b7100000000000000000000000000000000000000000000000000000000600052603260045260246000fdfea264697066735822122013343de1ef33d7b75eb7cd9ff7fd6e55f2218e39d1f84dfface4e00fd0fa5afc64736f6c634300080d0033",
  "immutableReferences": {},
  "source": "// SPDX-License-Identifier: GPL-3.0\n\npragma solidity ^0.8.13;\n\ncontract RushCon{\n    address chairperson;\n\n    struct matchInfo{\n        uint status;\n        uint matchNumber;\n        uint matchDuration;\n    }\n\n    struct providers{\n        uint numProviders;\n        mapping (uint =>address) providerList;\n    }\n\n    providers allProviders;\n\n    uint commission = 20;\n    mapping (address=>uint) public rewards;\n    mapping (address=>matchInfo) public matchDetails;\n    mapping (address=>uint) public registered;\n\n    modifier onlyChairperson{\n        require(msg.sender == chairperson);\n        _;\n    }\n\n    modifier onlyUser{\n        require(registered[msg.sender] == 1);\n        _;\n    }\n\n    modifier onlyProvider{\n        require(registered[msg.sender] == 2);\n        _;\n    }\n\n    constructor() payable{\n        chairperson = msg.sender;\n        payable(address(this)).transfer(msg.value);  // can send some value to the contract initially\n    }\n\n    function viewCommission() public view returns(uint) {\n        return address(this).balance;\n    }\n\n    function viewRewards() public view onlyUser returns(uint) {\n        return rewards[msg.sender];\n    }\n\n    function getProviders() public view returns(address[] memory){\n        address[] memory addressArray = new address[](allProviders.numProviders);\n        for(uint i = 0; i < allProviders.numProviders; i++) {\n            addressArray[i] = allProviders.providerList[i];\n        }\n        return addressArray;\n    }\n\n    function registerUser(address user) public {\n        registered[user] = 1;\n    }\n\n    function registerProvider(address provider) public {\n        registered[provider] = 2;\n        allProviders.providerList[allProviders.numProviders++] = provider;\n    }\n\n    function unregister(address member) onlyChairperson public{\n        if(registered[member] == 0){\n            revert();\n        }\n        if(registered[member] == 2){\n            for(uint i = 0; i < allProviders.numProviders; i++) {\n                if(allProviders.providerList[i] == member){\n                    delete allProviders.providerList[i];\n                }\n            }\n            allProviders.numProviders--;\n        }\n        registered[member] = 0;\n    }\n\n    function requestStream(uint matchId, uint duration) onlyUser public{\n        matchDetails[msg.sender].status = 0;\n        matchDetails[msg.sender].matchNumber = matchId;\n        matchDetails[msg.sender].matchDuration = duration;\n    }\n\n    function responseStream(address user, uint status) onlyProvider public{\n        if(registered[user] != 1){\n            revert();\n        }\n        matchDetails[user].status = status;\n    }\n\n    function confirmPayment(address payable channel) onlyUser payable public{\n        uint amount;\n        if(registered[channel] != 2){\n            revert();\n        }\n        if(rewards[msg.sender] >= 100){\n            amount = 0;\n            rewards[msg.sender] = rewards[msg.sender] - 100;\n        }\n        else{\n            amount = (uint)(((100-commission)*msg.value)/100);\n            rewards[msg.sender] = rewards[msg.sender] + 10;\n        }\n        channel.transfer(amount);\n    }\n}",
  "sourcePath": "D:\\academics\\ub_cse\\526_BIA\\project\\Rush-Dapp\\rush-contract\\contracts\\RushCon.sol",
  "compiler": {
    "name": "solc",
    "version": "0.8.13+commit.abaa5c0e.Emscripten.clang"
  },
  "schemaVersion": "3.4.6",
  "updatedAt": "2022-04-18T01:38:01.809Z",
  "networkType": "ethereum",
  "devdoc": {
    "kind": "dev",
    "methods": {},
    "version": 1
  },
  "userdoc": {
    "kind": "user",
    "methods": {},
    "version": 1
  }
}