{
  "contractName": "RushCon",
  "abi": [
    {
      "inputs": [],
      "stateMutability": "payable",
      "type": "constructor",
      "payable": true
    },
    {
      "inputs": [
        {
          "internalType": "address",
          "name": "",
          "type": "address"
        }
      ],
      "name": "matchDetails",
      "outputs": [
        {
          "internalType": "uint256",
          "name": "status",
          "type": "uint256"
        },
        {
          "internalType": "uint256",
          "name": "hashOfDetails",
          "type": "uint256"
        }
      ],
      "stateMutability": "view",
      "type": "function",
      "constant": true
    },
    {
      "inputs": [
        {
          "internalType": "address",
          "name": "",
          "type": "address"
        }
      ],
      "name": "registered",
      "outputs": [
        {
          "internalType": "uint256",
          "name": "",
          "type": "uint256"
        }
      ],
      "stateMutability": "view",
      "type": "function",
      "constant": true
    },
    {
      "inputs": [
        {
          "internalType": "address",
          "name": "",
          "type": "address"
        }
      ],
      "name": "rewards",
      "outputs": [
        {
          "internalType": "uint256",
          "name": "",
          "type": "uint256"
        }
      ],
      "stateMutability": "view",
      "type": "function",
      "constant": true
    },
    {
      "inputs": [],
      "name": "viewBalance",
      "outputs": [
        {
          "internalType": "uint256",
          "name": "",
          "type": "uint256"
        }
      ],
      "stateMutability": "view",
      "type": "function",
      "constant": true
    },
    {
      "inputs": [],
      "name": "viewRewards",
      "outputs": [
        {
          "internalType": "uint256",
          "name": "",
          "type": "uint256"
        }
      ],
      "stateMutability": "view",
      "type": "function",
      "constant": true
    },
    {
      "inputs": [],
      "name": "getProviders",
      "outputs": [
        {
          "internalType": "address[]",
          "name": "",
          "type": "address[]"
        }
      ],
      "stateMutability": "view",
      "type": "function",
      "constant": true
    },
    {
      "inputs": [
        {
          "internalType": "address",
          "name": "user",
          "type": "address"
        }
      ],
      "name": "registerUser",
      "outputs": [],
      "stateMutability": "nonpayable",
      "type": "function"
    },
    {
      "inputs": [
        {
          "internalType": "address",
          "name": "provider",
          "type": "address"
        }
      ],
      "name": "registerProvider",
      "outputs": [],
      "stateMutability": "nonpayable",
      "type": "function"
    },
    {
      "inputs": [
        {
          "internalType": "address",
          "name": "member",
          "type": "address"
        }
      ],
      "name": "unregister",
      "outputs": [],
      "stateMutability": "nonpayable",
      "type": "function"
    },
    {
      "inputs": [
        {
          "internalType": "uint256",
          "name": "hashOfDetails",
          "type": "uint256"
        }
      ],
      "name": "requestStream",
      "outputs": [],
      "stateMutability": "nonpayable",
      "type": "function"
    },
    {
      "inputs": [
        {
          "internalType": "address",
          "name": "user",
          "type": "address"
        },
        {
          "internalType": "uint256",
          "name": "hashOfDetails",
          "type": "uint256"
        },
        {
          "internalType": "uint256",
          "name": "status",
          "type": "uint256"
        }
      ],
      "name": "responseStream",
      "outputs": [],
      "stateMutability": "nonpayable",
      "type": "function"
    },
    {
      "inputs": [
        {
          "internalType": "address payable",
          "name": "channel",
          "type": "address"
        }
      ],
      "name": "confirmPayment",
      "outputs": [],
      "stateMutability": "payable",
      "type": "function",
      "payable": true
    }
  ],
  "bytecode": "0x60806040526014600355336000806101000a81548173ffffffffffffffffffffffffffffffffffffffff021916908373ffffffffffffffffffffffffffffffffffffffff1602179055503073ffffffffffffffffffffffffffffffffffffffff166108fc349081150290604051600060405180830381858888f1935050505015801561008f573d6000803e3d6000fd5b506110208061009f6000396000f3fe6080604052600436106100a75760003560e01c80633dfa83b3116100645780633dfa83b3146101b65780633ff1e05b146101e15780634b76ef1c1461020c57806382e2d08514610228578063b2dd5c0714610266578063edc922a9146102a3576100a7565b80630700037d146100ac5780630e260016146100e95780632199d5cd1461011257806322a0be7f1461013b57806324b6b787146101645780632ec2c2461461018d575b600080fd5b3480156100b857600080fd5b506100d360048036038101906100ce9190610b50565b6102ce565b6040516100e09190610b96565b60405180910390f35b3480156100f557600080fd5b50610110600480360381019061010b9190610b50565b6102e6565b005b34801561011e57600080fd5b5061013960048036038101906101349190610b50565b61039b565b005b34801561014757600080fd5b50610162600480360381019061015d9190610bdd565b6103e3565b005b34801561017057600080fd5b5061018b60048036038101906101869190610c0a565b6104c1565b005b34801561019957600080fd5b506101b460048036038101906101af9190610b50565b6105ec565b005b3480156101c257600080fd5b506101cb6106e4565b6040516101d89190610b96565b60405180910390f35b3480156101ed57600080fd5b506101f661072b565b6040516102039190610b96565b60405180910390f35b61022660048036038101906102219190610c9b565b610733565b005b34801561023457600080fd5b5061024f600480360381019061024a9190610b50565b6109af565b60405161025d929190610cc8565b60405180910390f35b34801561027257600080fd5b5061028d60048036038101906102889190610b50565b6109d3565b60405161029a9190610b96565b60405180910390f35b3480156102af57600080fd5b506102b86109eb565b6040516102c59190610daf565b60405180910390f35b60046020528060005260406000206000915090505481565b6002600660008373ffffffffffffffffffffffffffffffffffffffff1673ffffffffffffffffffffffffffffffffffffffff16815260200190815260200160002081905550806001800160006001600001600081548092919061034890610e00565b91905055815260200190815260200160002060006101000a81548173ffffffffffffffffffffffffffffffffffffffff021916908373ffffffffffffffffffffffffffffffffffffffff16021790555050565b6001600660008373ffffffffffffffffffffffffffffffffffffffff1673ffffffffffffffffffffffffffffffffffffffff1681526020019081526020016000208190555050565b6001600660003373ffffffffffffffffffffffffffffffffffffffff1673ffffffffffffffffffffffffffffffffffffffff168152602001908152602001600020541461042f57600080fd5b6000600560003373ffffffffffffffffffffffffffffffffffffffff1673ffffffffffffffffffffffffffffffffffffffff1681526020019081526020016000206000018190555080600560003373ffffffffffffffffffffffffffffffffffffffff1673ffffffffffffffffffffffffffffffffffffffff1681526020019081526020016000206001018190555050565b6002600660003373ffffffffffffffffffffffffffffffffffffffff1673ffffffffffffffffffffffffffffffffffffffff168152602001908152602001600020541461050d57600080fd5b6001600660008573ffffffffffffffffffffffffffffffffffffffff1673ffffffffffffffffffffffffffffffffffffffff168152602001908152602001600020541461055957600080fd5b80600560008573ffffffffffffffffffffffffffffffffffffffff1673ffffffffffffffffffffffffffffffffffffffff1681526020019081526020016000206000018190555081600560008573ffffffffffffffffffffffffffffffffffffffff1673ffffffffffffffffffffffffffffffffffffffff16815260200190815260200160002060010181905550505050565b60008054906101000a900473ffffffffffffffffffffffffffffffffffffffff1673ffffffffffffffffffffffffffffffffffffffff163373ffffffffffffffffffffffffffffffffffffffff161461064457600080fd5b3373ffffffffffffffffffffffffffffffffffffffff1660008054906101000a900473ffffffffffffffffffffffffffffffffffffffff1673ffffffffffffffffffffffffffffffffffffffff161461069c57600080fd5b6000600660008373ffffffffffffffffffffffffffffffffffffffff1673ffffffffffffffffffffffffffffffffffffffff1681526020019081526020016000208190555050565b6000600460003373ffffffffffffffffffffffffffffffffffffffff1673ffffffffffffffffffffffffffffffffffffffff16815260200190815260200160002054905090565b600047905090565b6001600660003373ffffffffffffffffffffffffffffffffffffffff1673ffffffffffffffffffffffffffffffffffffffff168152602001908152602001600020541461077f57600080fd5b60006002600660008473ffffffffffffffffffffffffffffffffffffffff1673ffffffffffffffffffffffffffffffffffffffff16815260200190815260200160002054146107cd57600080fd5b6064600460003373ffffffffffffffffffffffffffffffffffffffff1673ffffffffffffffffffffffffffffffffffffffff16815260200190815260200160002054106108ac57600090506064600460003373ffffffffffffffffffffffffffffffffffffffff1673ffffffffffffffffffffffffffffffffffffffff168152602001908152602001600020546108649190610e48565b600460003373ffffffffffffffffffffffffffffffffffffffff1673ffffffffffffffffffffffffffffffffffffffff16815260200190815260200160002081905550610964565b60643460035460646108be9190610e48565b6108c89190610e7c565b6108d29190610f05565b9050600a600460003373ffffffffffffffffffffffffffffffffffffffff1673ffffffffffffffffffffffffffffffffffffffff168152602001908152602001600020546109209190610f36565b600460003373ffffffffffffffffffffffffffffffffffffffff1673ffffffffffffffffffffffffffffffffffffffff168152602001908152602001600020819055505b8173ffffffffffffffffffffffffffffffffffffffff166108fc829081150290604051600060405180830381858888f193505050501580156109aa573d6000803e3d6000fd5b505050565b60056020528060005260406000206000915090508060000154908060010154905082565b60066020528060005260406000206000915090505481565b6060600060016000015467ffffffffffffffff811115610a0e57610a0d610f8c565b5b604051908082528060200260200182016040528015610a3c5781602001602082028036833780820191505090505b50905060005b600160000154811015610ae55760018001600082815260200190815260200160002060009054906101000a900473ffffffffffffffffffffffffffffffffffffffff16828281518110610a9857610a97610fbb565b5b602002602001019073ffffffffffffffffffffffffffffffffffffffff16908173ffffffffffffffffffffffffffffffffffffffff16815250508080610add90610e00565b915050610a42565b508091505090565b600080fd5b600073ffffffffffffffffffffffffffffffffffffffff82169050919050565b6000610b1d82610af2565b9050919050565b610b2d81610b12565b8114610b3857600080fd5b50565b600081359050610b4a81610b24565b92915050565b600060208284031215610b6657610b65610aed565b5b6000610b7484828501610b3b565b91505092915050565b6000819050919050565b610b9081610b7d565b82525050565b6000602082019050610bab6000830184610b87565b92915050565b610bba81610b7d565b8114610bc557600080fd5b50565b600081359050610bd781610bb1565b92915050565b600060208284031215610bf357610bf2610aed565b5b6000610c0184828501610bc8565b91505092915050565b600080600060608486031215610c2357610c22610aed565b5b6000610c3186828701610b3b565b9350506020610c4286828701610bc8565b9250506040610c5386828701610bc8565b9150509250925092565b6000610c6882610af2565b9050919050565b610c7881610c5d565b8114610c8357600080fd5b50565b600081359050610c9581610c6f565b92915050565b600060208284031215610cb157610cb0610aed565b5b6000610cbf84828501610c86565b91505092915050565b6000604082019050610cdd6000830185610b87565b610cea6020830184610b87565b9392505050565b600081519050919050565b600082825260208201905092915050565b6000819050602082019050919050565b610d2681610b12565b82525050565b6000610d388383610d1d565b60208301905092915050565b6000602082019050919050565b6000610d5c82610cf1565b610d668185610cfc565b9350610d7183610d0d565b8060005b83811015610da2578151610d898882610d2c565b9750610d9483610d44565b925050600181019050610d75565b5085935050505092915050565b60006020820190508181036000830152610dc98184610d51565b905092915050565b7f4e487b7100000000000000000000000000000000000000000000000000000000600052601160045260246000fd5b6000610e0b82610b7d565b91507fffffffffffffffffffffffffffffffffffffffffffffffffffffffffffffffff8203610e3d57610e3c610dd1565b5b600182019050919050565b6000610e5382610b7d565b9150610e5e83610b7d565b925082821015610e7157610e70610dd1565b5b828203905092915050565b6000610e8782610b7d565b9150610e9283610b7d565b9250817fffffffffffffffffffffffffffffffffffffffffffffffffffffffffffffffff0483118215151615610ecb57610eca610dd1565b5b828202905092915050565b7f4e487b7100000000000000000000000000000000000000000000000000000000600052601260045260246000fd5b6000610f1082610b7d565b9150610f1b83610b7d565b925082610f2b57610f2a610ed6565b5b828204905092915050565b6000610f4182610b7d565b9150610f4c83610b7d565b9250827fffffffffffffffffffffffffffffffffffffffffffffffffffffffffffffffff03821115610f8157610f80610dd1565b5b828201905092915050565b7f4e487b7100000000000000000000000000000000000000000000000000000000600052604160045260246000fd5b7f4e487b7100000000000000000000000000000000000000000000000000000000600052603260045260246000fdfea2646970667358221220ee19d0d81efa983eaaec4cf8eaabad6cc338f39dc38ba81f4f583827a5f7b55f64736f6c634300080d0033",
  "immutableReferences": {},
  "source": "// SPDX-License-Identifier: GPL-3.0\n\npragma solidity ^0.8.13;\n\ncontract RushCon{\n    address chairperson;\n\n    struct matchInfo{\n        uint status;\n        uint hashOfDetails;\n    }\n\n    struct providers{\n        uint numProviders;\n        mapping (uint =>address) providerList;\n    }\n\n    providers allProviders;\n\n    uint commission = 20;\n    mapping (address=>uint) public rewards;\n    mapping (address=>matchInfo) public matchDetails;\n    mapping (address=>uint) public registered;\n\n    modifier onlyChairperson{\n        require(msg.sender == chairperson);\n        _;\n    }\n\n    modifier onlyUser{\n        require(registered[msg.sender] == 1);\n        _;\n    }\n\n    modifier onlyProvider{\n        require(registered[msg.sender] == 2);\n        _;\n    }\n\n    constructor() payable{\n        chairperson = msg.sender;\n        payable(address(this)).transfer(msg.value);  // can send some value to the contract initially\n    }\n\n    function viewBalance() public view returns(uint) {\n        return address(this).balance;\n    }\n\n    function viewRewards() public view returns(uint) {\n        return rewards[msg.sender];\n    }\n\n    function getProviders() public view returns(address[] memory){\n        address[] memory addressArray = new address[](allProviders.numProviders);\n        for(uint i = 0; i < allProviders.numProviders; i++) {\n            addressArray[i] = allProviders.providerList[i];\n        }\n        return addressArray;\n    }\n\n    function registerUser(address user) public {\n        registered[user] = 1;\n    }\n\n    function registerProvider(address provider) public {\n        registered[provider] = 2;\n        allProviders.providerList[allProviders.numProviders++] = provider;\n    }\n\n    function unregister(address member) onlyChairperson public{\n        if(chairperson != msg.sender){\n            revert();\n        }\n        registered[member] = 0;\n    }\n\n    function requestStream(uint hashOfDetails) onlyUser public{\n        matchDetails[msg.sender].status = 0;\n        matchDetails[msg.sender].hashOfDetails = hashOfDetails;\n    }\n\n    function responseStream(address user, uint hashOfDetails, uint status) onlyProvider public{\n        if(registered[user] != 1){\n            revert();\n        }\n        matchDetails[user].status = status;\n        matchDetails[user].hashOfDetails = hashOfDetails;\n    }\n\n    function confirmPayment(address payable channel) onlyUser payable public{\n        uint amount;\n        if(registered[channel] != 2){\n            revert();\n        }\n        if(rewards[msg.sender] >= 100){\n            amount = 0;\n            rewards[msg.sender] = rewards[msg.sender] - 100;\n        }\n        else{\n            amount = (uint)(((100-commission)*msg.value)/100);\n            rewards[msg.sender] = rewards[msg.sender] + 10;\n        }\n        channel.transfer(amount);\n    }\n}",
  "sourcePath": "D:\\academics\\ub_cse\\526_BIA\\project\\Rush-Dapp\\rush-contract\\contracts\\RushCon.sol",
  "compiler": {
    "name": "solc",
    "version": "0.8.13+commit.abaa5c0e.Emscripten.clang"
  },
  "schemaVersion": "3.4.6",
  "updatedAt": "2022-04-16T21:11:51.535Z",
  "networkType": "ethereum",
  "devdoc": {
    "kind": "dev",
    "methods": {},
    "version": 1
  },
  "userdoc": {
    "kind": "user",
    "methods": {},
    "version": 1
  }
}