{
  "contractName": "RushCon",
  "abi": [
    {
      "inputs": [],
      "stateMutability": "payable",
      "type": "constructor",
      "payable": true
    },
    {
      "inputs": [
        {
          "internalType": "address",
          "name": "",
          "type": "address"
        }
      ],
      "name": "matchDetails",
      "outputs": [
        {
          "internalType": "uint256",
          "name": "status",
          "type": "uint256"
        },
        {
          "internalType": "uint256",
          "name": "hashOfDetails",
          "type": "uint256"
        }
      ],
      "stateMutability": "view",
      "type": "function",
      "constant": true
    },
    {
      "inputs": [
        {
          "internalType": "address",
          "name": "",
          "type": "address"
        }
      ],
      "name": "registered",
      "outputs": [
        {
          "internalType": "uint256",
          "name": "",
          "type": "uint256"
        }
      ],
      "stateMutability": "view",
      "type": "function",
      "constant": true
    },
    {
      "inputs": [
        {
          "internalType": "address",
          "name": "",
          "type": "address"
        }
      ],
      "name": "rewards",
      "outputs": [
        {
          "internalType": "uint256",
          "name": "",
          "type": "uint256"
        }
      ],
      "stateMutability": "view",
      "type": "function",
      "constant": true
    },
    {
      "inputs": [],
      "name": "viewBalance",
      "outputs": [
        {
          "internalType": "uint256",
          "name": "",
          "type": "uint256"
        }
      ],
      "stateMutability": "view",
      "type": "function",
      "constant": true
    },
    {
      "inputs": [],
      "name": "viewRewards",
      "outputs": [
        {
          "internalType": "uint256",
          "name": "",
          "type": "uint256"
        }
      ],
      "stateMutability": "view",
      "type": "function",
      "constant": true
    },
    {
      "inputs": [
        {
          "internalType": "address",
          "name": "user",
          "type": "address"
        }
      ],
      "name": "registerUser",
      "outputs": [],
      "stateMutability": "nonpayable",
      "type": "function"
    },
    {
      "inputs": [
        {
          "internalType": "address",
          "name": "provider",
          "type": "address"
        }
      ],
      "name": "registerProvider",
      "outputs": [],
      "stateMutability": "nonpayable",
      "type": "function"
    },
    {
      "inputs": [
        {
          "internalType": "address",
          "name": "member",
          "type": "address"
        }
      ],
      "name": "unregister",
      "outputs": [],
      "stateMutability": "nonpayable",
      "type": "function"
    },
    {
      "inputs": [
        {
          "internalType": "uint256",
          "name": "hashOfDetails",
          "type": "uint256"
        }
      ],
      "name": "requestStream",
      "outputs": [],
      "stateMutability": "nonpayable",
      "type": "function"
    },
    {
      "inputs": [
        {
          "internalType": "address",
          "name": "user",
          "type": "address"
        },
        {
          "internalType": "uint256",
          "name": "hashOfDetails",
          "type": "uint256"
        },
        {
          "internalType": "uint256",
          "name": "status",
          "type": "uint256"
        }
      ],
      "name": "responseStream",
      "outputs": [],
      "stateMutability": "nonpayable",
      "type": "function"
    },
    {
      "inputs": [
        {
          "internalType": "address payable",
          "name": "channel",
          "type": "address"
        }
      ],
      "name": "confirmPayment",
      "outputs": [],
      "stateMutability": "payable",
      "type": "function",
      "payable": true
    }
  ],
  "bytecode": "0x60806040526014600155336000806101000a81548173ffffffffffffffffffffffffffffffffffffffff021916908373ffffffffffffffffffffffffffffffffffffffff1602179055503073ffffffffffffffffffffffffffffffffffffffff166108fc349081150290604051600060405180830381858888f1935050505015801561008f573d6000803e3d6000fd5b50610cf58061009f6000396000f3fe60806040526004361061009c5760003560e01c80632ec2c246116100645780632ec2c246146101825780633dfa83b3146101ab5780633ff1e05b146101d65780634b76ef1c1461020157806382e2d0851461021d578063b2dd5c071461025b5761009c565b80630700037d146100a15780630e260016146100de5780632199d5cd1461010757806322a0be7f1461013057806324b6b78714610159575b600080fd5b3480156100ad57600080fd5b506100c860048036038101906100c391906109ab565b610298565b6040516100d591906109f1565b60405180910390f35b3480156100ea57600080fd5b50610105600480360381019061010091906109ab565b6102b0565b005b34801561011357600080fd5b5061012e600480360381019061012991906109ab565b6102f8565b005b34801561013c57600080fd5b5061015760048036038101906101529190610a38565b610340565b005b34801561016557600080fd5b50610180600480360381019061017b9190610a65565b61041e565b005b34801561018e57600080fd5b506101a960048036038101906101a491906109ab565b610549565b005b3480156101b757600080fd5b506101c0610641565b6040516101cd91906109f1565b60405180910390f35b3480156101e257600080fd5b506101eb610688565b6040516101f891906109f1565b60405180910390f35b61021b60048036038101906102169190610af6565b610690565b005b34801561022957600080fd5b50610244600480360381019061023f91906109ab565b61090c565b604051610252929190610b23565b60405180910390f35b34801561026757600080fd5b50610282600480360381019061027d91906109ab565b610930565b60405161028f91906109f1565b60405180910390f35b60026020528060005260406000206000915090505481565b6002600460008373ffffffffffffffffffffffffffffffffffffffff1673ffffffffffffffffffffffffffffffffffffffff1681526020019081526020016000208190555050565b6001600460008373ffffffffffffffffffffffffffffffffffffffff1673ffffffffffffffffffffffffffffffffffffffff1681526020019081526020016000208190555050565b6001600460003373ffffffffffffffffffffffffffffffffffffffff1673ffffffffffffffffffffffffffffffffffffffff168152602001908152602001600020541461038c57600080fd5b6000600360003373ffffffffffffffffffffffffffffffffffffffff1673ffffffffffffffffffffffffffffffffffffffff1681526020019081526020016000206000018190555080600360003373ffffffffffffffffffffffffffffffffffffffff1673ffffffffffffffffffffffffffffffffffffffff1681526020019081526020016000206001018190555050565b6002600460003373ffffffffffffffffffffffffffffffffffffffff1673ffffffffffffffffffffffffffffffffffffffff168152602001908152602001600020541461046a57600080fd5b6001600460008573ffffffffffffffffffffffffffffffffffffffff1673ffffffffffffffffffffffffffffffffffffffff16815260200190815260200160002054146104b657600080fd5b80600360008573ffffffffffffffffffffffffffffffffffffffff1673ffffffffffffffffffffffffffffffffffffffff1681526020019081526020016000206000018190555081600360008573ffffffffffffffffffffffffffffffffffffffff1673ffffffffffffffffffffffffffffffffffffffff16815260200190815260200160002060010181905550505050565b60008054906101000a900473ffffffffffffffffffffffffffffffffffffffff1673ffffffffffffffffffffffffffffffffffffffff163373ffffffffffffffffffffffffffffffffffffffff16146105a157600080fd5b3373ffffffffffffffffffffffffffffffffffffffff1660008054906101000a900473ffffffffffffffffffffffffffffffffffffffff1673ffffffffffffffffffffffffffffffffffffffff16146105f957600080fd5b6000600460008373ffffffffffffffffffffffffffffffffffffffff1673ffffffffffffffffffffffffffffffffffffffff1681526020019081526020016000208190555050565b6000600260003373ffffffffffffffffffffffffffffffffffffffff1673ffffffffffffffffffffffffffffffffffffffff16815260200190815260200160002054905090565b600047905090565b6001600460003373ffffffffffffffffffffffffffffffffffffffff1673ffffffffffffffffffffffffffffffffffffffff16815260200190815260200160002054146106dc57600080fd5b60006002600460008473ffffffffffffffffffffffffffffffffffffffff1673ffffffffffffffffffffffffffffffffffffffff168152602001908152602001600020541461072a57600080fd5b6064600260003373ffffffffffffffffffffffffffffffffffffffff1673ffffffffffffffffffffffffffffffffffffffff168152602001908152602001600020541061080957600090506064600260003373ffffffffffffffffffffffffffffffffffffffff1673ffffffffffffffffffffffffffffffffffffffff168152602001908152602001600020546107c19190610b7b565b600260003373ffffffffffffffffffffffffffffffffffffffff1673ffffffffffffffffffffffffffffffffffffffff168152602001908152602001600020819055506108c1565b606434600154606461081b9190610b7b565b6108259190610baf565b61082f9190610c38565b9050600a600260003373ffffffffffffffffffffffffffffffffffffffff1673ffffffffffffffffffffffffffffffffffffffff1681526020019081526020016000205461087d9190610c69565b600260003373ffffffffffffffffffffffffffffffffffffffff1673ffffffffffffffffffffffffffffffffffffffff168152602001908152602001600020819055505b8173ffffffffffffffffffffffffffffffffffffffff166108fc829081150290604051600060405180830381858888f19350505050158015610907573d6000803e3d6000fd5b505050565b60036020528060005260406000206000915090508060000154908060010154905082565b60046020528060005260406000206000915090505481565b600080fd5b600073ffffffffffffffffffffffffffffffffffffffff82169050919050565b60006109788261094d565b9050919050565b6109888161096d565b811461099357600080fd5b50565b6000813590506109a58161097f565b92915050565b6000602082840312156109c1576109c0610948565b5b60006109cf84828501610996565b91505092915050565b6000819050919050565b6109eb816109d8565b82525050565b6000602082019050610a0660008301846109e2565b92915050565b610a15816109d8565b8114610a2057600080fd5b50565b600081359050610a3281610a0c565b92915050565b600060208284031215610a4e57610a4d610948565b5b6000610a5c84828501610a23565b91505092915050565b600080600060608486031215610a7e57610a7d610948565b5b6000610a8c86828701610996565b9350506020610a9d86828701610a23565b9250506040610aae86828701610a23565b9150509250925092565b6000610ac38261094d565b9050919050565b610ad381610ab8565b8114610ade57600080fd5b50565b600081359050610af081610aca565b92915050565b600060208284031215610b0c57610b0b610948565b5b6000610b1a84828501610ae1565b91505092915050565b6000604082019050610b3860008301856109e2565b610b4560208301846109e2565b9392505050565b7f4e487b7100000000000000000000000000000000000000000000000000000000600052601160045260246000fd5b6000610b86826109d8565b9150610b91836109d8565b925082821015610ba457610ba3610b4c565b5b828203905092915050565b6000610bba826109d8565b9150610bc5836109d8565b9250817fffffffffffffffffffffffffffffffffffffffffffffffffffffffffffffffff0483118215151615610bfe57610bfd610b4c565b5b828202905092915050565b7f4e487b7100000000000000000000000000000000000000000000000000000000600052601260045260246000fd5b6000610c43826109d8565b9150610c4e836109d8565b925082610c5e57610c5d610c09565b5b828204905092915050565b6000610c74826109d8565b9150610c7f836109d8565b9250827fffffffffffffffffffffffffffffffffffffffffffffffffffffffffffffffff03821115610cb457610cb3610b4c565b5b82820190509291505056fea2646970667358221220999258f514185170bed37b4c0c46d04e2fd3355eb1e95c5b12940fcd9ad1106864736f6c634300080d0033",
  "immutableReferences": {},
  "source": "// SPDX-License-Identifier: GPL-3.0\n\npragma solidity ^0.8.13;\n\ncontract RushCon{\n    address chairperson;\n\n    struct matchInfo{\n        uint status;\n        uint hashOfDetails;\n    }\n\n    uint commission = 20;\n    mapping (address=>uint) public rewards;\n    mapping (address=>matchInfo) public matchDetails;\n    mapping (address=>uint) public registered;\n\n    modifier onlyChairperson{\n        require(msg.sender == chairperson);\n        _;\n    }\n\n    modifier onlyUser{\n        require(registered[msg.sender] == 1);\n        _;\n    }\n\n    modifier onlyProvider{\n        require(registered[msg.sender] == 2);\n        _;\n    }\n\n    constructor() payable{\n        chairperson = msg.sender;\n        payable(address(this)).transfer(msg.value);  // can send some value to the contract initially\n    }\n\n    function viewBalance() public view returns(uint) {\n        return address(this).balance;\n    }\n\n    function viewRewards() public view returns(uint) {\n        return rewards[msg.sender];\n    }\n\n    function registerUser(address user) public {\n        registered[user] = 1;\n    }\n\n    function registerProvider(address provider) public {\n        registered[provider] = 2;\n    }\n\n    function unregister(address member) onlyChairperson public{\n        if(chairperson != msg.sender){\n            revert();\n        }\n        registered[member] = 0;\n    }\n\n    function requestStream(uint hashOfDetails) onlyUser public{\n        matchDetails[msg.sender].status = 0;\n        matchDetails[msg.sender].hashOfDetails = hashOfDetails;\n    }\n\n    function responseStream(address user, uint hashOfDetails, uint status) onlyProvider public{\n        if(registered[user] != 1){\n            revert();\n        }\n        matchDetails[user].status = status;\n        matchDetails[user].hashOfDetails = hashOfDetails;\n    }\n\n    function confirmPayment(address payable channel) onlyUser payable public{\n        uint amount;\n        if(registered[channel] != 2){\n            revert();\n        }\n        if(rewards[msg.sender] >= 100){\n            amount = 0;\n            rewards[msg.sender] = rewards[msg.sender] - 100;\n        }\n        else{\n            amount = (uint)(((100-commission)*msg.value)/100);\n            rewards[msg.sender] = rewards[msg.sender] + 10;\n        }\n        channel.transfer(amount);\n    }\n}",
  "sourcePath": "D:\\academics\\ub_cse\\526_BIA\\project\\Rush-Dapp\\rush-contract\\contracts\\RushCon.sol",
  "compiler": {
    "name": "solc",
    "version": "0.8.13+commit.abaa5c0e.Emscripten.clang"
  },
  "schemaVersion": "3.4.6",
  "updatedAt": "2022-04-16T02:15:11.295Z",
  "networkType": "ethereum",
  "devdoc": {
    "kind": "dev",
    "methods": {},
    "version": 1
  },
  "userdoc": {
    "kind": "user",
    "methods": {},
    "version": 1
  }
}